{
  "transactions": [
    {
      "hash": "0xeb4b06f8e64ccc475e27a06a4befde6316580f9cdfc83899be104831459f52e9",
      "transactionType": "CREATE",
      "contractName": "MinimalRouter",
      "contractAddress": "0xc6351303897a2c274ca2c06d06e987b88f7dbcbe",
      "function": null,
      "arguments": [
        "0x498581fF718922c3f8e6A244956aF099B2652b2b"
      ],
      "transaction": {
        "from": "0x14b483fea5ce2e34c4e6a9581084babdefea7651",
        "gas": "0x1273fd",
        "value": "0x0",
        "input": "0x60a0604052348015600e575f80fd5b50604051611086380380611086833981016040819052602b91603b565b6001600160a01b03166080526066565b5f60208284031215604a575f80fd5b81516001600160a01b0381168114605f575f80fd5b9392505050565b608051610fd86100ae5f395f818160f0015281816101370152818161022a015281816103530152818161046c015281816104d40152818161052e01526105990152610fd85ff3fe608060405260043610610049575f3560e01c8063542524dd1461004d5780635b1f47a31461007e57806391dd73461461009f578063c7b8e15d146100cb578063dc4c90d3146100df575b5f80fd5b348015610058575f80fd5b50610061610112565b6040516001600160a01b0390911681526020015b60405180910390f35b61009161008c366004610bbc565b610134565b604051908152602001610075565b3480156100aa575f80fd5b506100be6100b9366004610c37565b61021d565b6040516100759190610cd3565b3480156100d6575f80fd5b5061006161027b565b3480156100ea575f80fd5b506100617f000000000000000000000000000000000000000000000000000000000000000081565b610131600173fffd8963efd1fc6a506488495d951d5263988d26610cf9565b81565b5f7f00000000000000000000000000000000000000000000000000000000000000006001600160a01b03166348c8949133888888888860405160200161017f96959493929190610d5b565b6040516020818303038152906040526040518263ffffffff1660e01b81526004016101aa9190610cd3565b5f604051808303815f875af11580156101c5573d5f803e3d5ffd5b505050506040513d5f823e601f3d908101601f191682016040526101ec9190810190610daf565b8060200190518101906101ff9190610e24565b9050478015610213576102135f338361028b565b5095945050505050565b6060336001600160a01b037f000000000000000000000000000000000000000000000000000000000000000016146102685760405163570c108560e11b815260040160405180910390fd5b6102728383610330565b90505b92915050565b6101316401000276a36001610e3b565b5f6001600160a01b0384166102c0575f805f8085875af19050806102bb576102bb835f633d2cec6f60e21b610607565b61032a565b60405163a9059cbb60e01b81526001600160a01b038416600482015282602482015260205f6044835f895af13d15601f3d1160015f511416171691505f81525f60208201525f6040820152508061032a5761032a8463a9059cbb60e01b633c9fd93960e21b610607565b50505050565b60605f8080808080610344888a018a610e5a565b9550955095509550955095505f7f00000000000000000000000000000000000000000000000000000000000000006001600160a01b031663f3cd914c87604051806060016040528089151581526020018861039f57876103a8565b6103a888610ee7565b8152602001896103d6576103d1600173fffd8963efd1fc6a506488495d951d5263988d26610cf9565b6103e6565b6103e66401000276a36001610e3b565b6001600160a01b0316815250856040518463ffffffff1660e01b815260040161041193929190610f01565b6020604051808303815f875af115801561042d573d5f803e3d5ffd5b505050506040513d601f19601f820116820180604052508101906104519190610e24565b90505f61045e8260801d90565b600f0b12156104bb576104b67f0000000000000000000000000000000000000000000000000000000000000000886104968460801d90565b61049f90610f53565b89516001600160a01b0316929190600f0b5f61067f565b610515565b5f6104c68260801d90565b600f0b1315610515576105157f0000000000000000000000000000000000000000000000000000000000000000886104fe8460801d90565b89516001600160a01b0316929190600f0b5f61094b565b5f61052082600f0b90565b600f0b12156105805761057b7f00000000000000000000000000000000000000000000000000000000000000008861055884600f0b90565b61056190610f53565b60208a01516001600160a01b0316929190600f0b5f61067f565b6105dd565b5f61058b82600f0b90565b600f0b13156105dd576105dd7f0000000000000000000000000000000000000000000000000000000000000000886105c384600f0b90565b60208a01516001600160a01b0316929190600f0b5f61094b565b60408051602081018390520160405160208183030381529060405297505050505050505092915050565b6040516390bfb86560e01b8082526001600160a01b03851660048301526001600160e01b031984166024830152608060448301526020601f3d018190040260a0810160648401523d608484015290913d5f60a483013e60048260a4018201526001600160e01b031984168260c4018201528160e40181fd5b801561071457836001600160a01b031663f5298aca846106ae886001600160a01b03166001600160a01b031690565b6040516001600160e01b031960e085901b1681526001600160a01b0390921660048301526024820152604481018590526064015b5f604051808303815f87803b1580156106f9575f80fd5b505af115801561070b573d5f803e3d5ffd5b50505050610944565b6001600160a01b03851661078b57836001600160a01b03166311da60b4836040518263ffffffff1660e01b815260040160206040518083038185885af1158015610760573d5f803e3d5ffd5b50505050506040513d601f19601f820116820180604052508101906107859190610e24565b50610944565b604051632961046560e21b81526001600160a01b03868116600483015285169063a5841194906024015f604051808303815f87803b1580156107cb575f80fd5b505af11580156107dd573d5f803e3d5ffd5b505050506001600160a01b038316301461086f576040516323b872dd60e01b81526001600160a01b0384811660048301528581166024830152604482018490528616906323b872dd906064016020604051808303815f875af1158015610845573d5f803e3d5ffd5b505050506040513d601f19601f820116820180604052508101906108699190610f80565b506108e1565b60405163a9059cbb60e01b81526001600160a01b0385811660048301526024820184905286169063a9059cbb906044016020604051808303815f875af11580156108bb573d5f803e3d5ffd5b505050506040513d601f19601f820116820180604052508101906108df9190610f80565b505b836001600160a01b03166311da60b46040518163ffffffff1660e01b81526004016020604051808303815f875af115801561091e573d5f803e3d5ffd5b505050506040513d601f19601f820116820180604052508101906109429190610e24565b505b5050505050565b8061098d57604051630b0d9c0960e01b81526001600160a01b038681166004830152848116602483015260448201849052851690630b0d9c09906064016106e2565b836001600160a01b031663156e29f6846109b6886001600160a01b03166001600160a01b031690565b6040516001600160e01b031960e085901b1681526001600160a01b0390921660048301526024820152604481018590526064015f604051808303815f87803b158015610a00575f80fd5b505af1158015610a12573d5f803e3d5ffd5b505050505050505050565b634e487b7160e01b5f52604160045260245ffd5b60405160a0810167ffffffffffffffff81118282101715610a5457610a54610a1d565b60405290565b604051601f8201601f1916810167ffffffffffffffff81118282101715610a8357610a83610a1d565b604052919050565b6001600160a01b0381168114610a9f575f80fd5b50565b8035610aad81610a8b565b919050565b5f60a08284031215610ac2575f80fd5b610aca610a31565b90508135610ad781610a8b565b81526020820135610ae781610a8b565b6020820152604082013562ffffff81168114610b01575f80fd5b60408201526060820135600281900b8114610b1a575f80fd5b6060820152610b2b60808301610aa2565b608082015292915050565b8015158114610a9f575f80fd5b5f67ffffffffffffffff821115610b5c57610b5c610a1d565b50601f01601f191660200190565b5f82601f830112610b79575f80fd5b8135610b8c610b8782610b43565b610a5a565b818152846020838601011115610ba0575f80fd5b816020850160208301375f918101602001919091529392505050565b5f805f805f6101208688031215610bd1575f80fd5b610bdb8787610ab2565b945060a0860135610beb81610b36565b935060c0860135610bfb81610b36565b925060e0860135915061010086013567ffffffffffffffff811115610c1e575f80fd5b610c2a88828901610b6a565b9150509295509295909350565b5f8060208385031215610c48575f80fd5b823567ffffffffffffffff811115610c5e575f80fd5b8301601f81018513610c6e575f80fd5b803567ffffffffffffffff811115610c84575f80fd5b856020828401011115610c95575f80fd5b6020919091019590945092505050565b5f81518084528060208401602086015e5f602082860101526020601f19601f83011685010191505092915050565b602081525f6102726020830184610ca5565b634e487b7160e01b5f52601160045260245ffd5b6001600160a01b03828116828216039081111561027557610275610ce5565b80516001600160a01b03908116835260208083015182169084015260408083015162ffffff169084015260608083015160020b9084015260809182015116910152565b6001600160a01b0387168152610d746020820187610d18565b84151560c082015283151560e0820152826101008201526101406101208201525f610da3610140830184610ca5565b98975050505050505050565b5f60208284031215610dbf575f80fd5b815167ffffffffffffffff811115610dd5575f80fd5b8201601f81018413610de5575f80fd5b8051610df3610b8782610b43565b818152856020838501011115610e07575f80fd5b8160208401602083015e5f91810160200191909152949350505050565b5f60208284031215610e34575f80fd5b5051919050565b6001600160a01b03818116838216019081111561027557610275610ce5565b5f805f805f806101408789031215610e70575f80fd5b8635610e7b81610a8b565b9550610e8a8860208901610ab2565b945060c0870135610e9a81610b36565b935060e0870135610eaa81610b36565b9250610100870135915061012087013567ffffffffffffffff811115610ece575f80fd5b610eda89828a01610b6a565b9150509295509295509295565b5f600160ff1b8201610efb57610efb610ce5565b505f0390565b610f0b8185610d18565b8251151560a0820152602083015160c082015260408301516001600160a01b031660e082015261012061010082018190525f90610f4a90830184610ca5565b95945050505050565b5f81600f0b6f7fffffffffffffffffffffffffffffff198103610f7857610f78610ce5565b5f0392915050565b5f60208284031215610f90575f80fd5b8151610f9b81610b36565b939250505056fea2646970667358221220043be3be773958a68c4e036fdff9bcec60afa26aced78accc8e8b6c9a3d4b96264736f6c634300081a0033000000000000000000000000498581ff718922c3f8e6a244956af099b2652b2b",
        "nonce": "0x0",
        "chainId": "0x2105"
      },
      "additionalContracts": [],
      "isFixedGasLimit": false
    },
    {
      "hash": "0x1243ef5541a1af7acdde36b35064b88d7ea603767ec68d591caca03286561da0",
      "transactionType": "CREATE2",
      "contractName": "HookFee",
      "contractAddress": "0x352487cf769016805b332607dbfda6ca46404044",
      "function": null,
      "arguments": [
        "0x498581fF718922c3f8e6A244956aF099B2652b2b"
      ],
      "transaction": {
        "from": "0x14b483fea5ce2e34c4e6a9581084babdefea7651",
        "to": "0x4e59b44847b379578588920ca78fbf26c0b4956c",
        "gas": "0x117dd0",
        "value": "0x0",
        "input": "0x000000000000000000000000000000000000000000000000000000000000005960a060405234801561000f575f80fd5b50604051610ff0380380610ff083398101604081905261002e916102a4565b6001600160a01b038116608052806100453061004c565b50506102d1565b61013c81610137604080516101c0810182525f80825260208201819052918101829052606081018290526080810182905260a0810182905260c0810182905260e08101829052610100810182905261012081018290526101408101829052610160810182905261018081018290526101a081019190915250604080516101c0810182525f80825260208201819052918101829052606081018290526080810182905260a0810182905260c08101829052600160e0820181905261010082018390526101208201839052610140820183905261016082015261018081018290526101a081019190915290565b61013f565b50565b80511515612000831615151415806101635750602081015115156110008316151514155b8061017a5750604081015115156108008316151514155b806101915750606081015115156104008316151514155b806101a85750608081015115156102008316151514155b806101bf575060a081015115156101008316151514155b806101d5575060c0810151151560808316151514155b806101eb575060e0810151151560408316151514155b806102025750610100810151151560208316151514155b806102195750610120810151151560108316151514155b806102305750610140810151151560088316151514155b806102475750610160810151151560048316151514155b8061025e5750610180810151151560028316151514155b8061027557506101a0810151151560018316151514155b1561028b5761028b630732d7b560e51b8361028f565b5050565b815f526001600160a01b03811660045260245ffd5b5f602082840312156102b4575f80fd5b81516001600160a01b03811681146102ca575f80fd5b9392505050565b608051610cf26102fe5f395f8181610312015281816103b8015281816104ca015261051b0152610cf25ff3fe608060405234801561000f575f80fd5b50600436106100e5575f3560e01c80639f063efc11610088578063c4e833ce11610063578063c4e833ce14610219578063dc4c90d31461030d578063dc98354e1461034c578063e1b4af691461020b575f80fd5b80639f063efc14610158578063b47b2fb1146101d5578063b6a8b0fa1461020b575f80fd5b80636c2bbe7e116100c35780636c2bbe7e146101585780636fe7e6eb1461018b57806378caa0bd1461019957806391dd7346146101b5575f80fd5b806321d0ee70146100e9578063259982e5146100e9578063575e24b41461011a575b5f80fd5b6100fc6100f73660046107b1565b61035a565b6040516001600160e01b031990911681526020015b60405180910390f35b61012d610128366004610838565b610374565b604080516001600160e01b03199094168452602084019290925262ffffff1690820152606001610111565b61016b610166366004610892565b610390565b604080516001600160e01b03199093168352602083019190915201610111565b6100fc6100f736600461091d565b6101a7666a94d74f43000081565b604051908152602001610111565b6101c86101c336600461097c565b6103ab565b60405161011191906109bb565b6101e86101e33660046109f0565b610409565b604080516001600160e01b03199093168352600f9190910b602083015201610111565b6100fc6100f7366004610a71565b610300604080516101c0810182525f80825260208201819052918101829052606081018290526080810182905260a0810182905260c0810182905260e08101829052610100810182905261012081018290526101408101829052610160810182905261018081018290526101a081019190915250604080516101c0810182525f80825260208201819052918101829052606081018290526080810182905260a0810182905260c08101829052600160e0820181905261010082018390526101208201839052610140820183905261016082015261018081018290526101a081019190915290565b6040516101119190610acb565b6103347f000000000000000000000000000000000000000000000000000000000000000081565b6040516001600160a01b039091168152602001610111565b6100fc6100f7366004610bec565b5f604051630a85dc2960e01b815260040160405180910390fd5b5f805f604051630a85dc2960e01b815260040160405180910390fd5b5f80604051630a85dc2960e01b815260040160405180910390fd5b6060336001600160a01b037f000000000000000000000000000000000000000000000000000000000000000016146103f65760405163570c108560e11b815260040160405180910390fd5b6104008383610567565b90505b92915050565b5f8060208601803582139082908290610422908a610c33565b15151490505f8280156104325750815b1561045b5761045461044489600f0b90565b600f0b666a94d74f430000610600565b90506104bf565b828015610466575081155b15610478576104546104448960801d90565b821580156104835750815b1561049e5761045461049589600f0b90565b61044490610c59565b821580156104aa575081155b156104bf576104bc6104958960801d90565b90505b8115610516576105117f000000000000000000000000000000000000000000000000000000000000000030835f8e60200160208101906104ff9190610c92565b6001600160a01b031693929190610614565b61054f565b61054f7f000000000000000000000000000000000000000000000000000000000000000030835f8e5f0160208101906104ff9190610c92565b63b47b2fb160e01b9b909a5098505050505050505050565b60605f80306001600160a01b03168585604051610585929190610cad565b5f604051808303815f865af19150503d805f81146105be576040519150601f19603f3d011682016040523d82523d5f602084013e6105c3565b606091505b509150915081156105d75791506104039050565b80515f036105f8576040516314815f4760e31b815260040160405180910390fd5b805160208201fd5b5f6104008383670de0b6b3a7640000610714565b8061068357604051630b0d9c0960e01b81526001600160a01b038681166004830152848116602483015260448201849052851690630b0d9c09906064015f604051808303815f87803b158015610668575f80fd5b505af115801561067a573d5f803e3d5ffd5b5050505061070d565b836001600160a01b031663156e29f6846106ac886001600160a01b03166001600160a01b031690565b6040516001600160e01b031960e085901b1681526001600160a01b0390921660048301526024820152604481018590526064015f604051808303815f87803b1580156106f6575f80fd5b505af1158015610708573d5f803e3d5ffd5b505050505b5050505050565b5f825f190484118302158202610728575f80fd5b5091020490565b6001600160a01b0381168114610743575f80fd5b50565b5f60a08284031215610756575f80fd5b50919050565b5f60808284031215610756575f80fd5b5f8083601f84011261077c575f80fd5b50813567ffffffffffffffff811115610793575f80fd5b6020830191508360208285010111156107aa575f80fd5b9250929050565b5f805f805f61016086880312156107c6575f80fd5b85356107d18161072f565b94506107e08760208801610746565b93506107ef8760c0880161075c565b925061014086013567ffffffffffffffff81111561080b575f80fd5b6108178882890161076c565b969995985093965092949392505050565b5f60608284031215610756575f80fd5b5f805f805f610140868803121561084d575f80fd5b85356108588161072f565b94506108678760208801610746565b93506108768760c08801610828565b925061012086013567ffffffffffffffff81111561080b575f80fd5b5f805f805f805f6101a0888a0312156108a9575f80fd5b87356108b48161072f565b96506108c38960208a01610746565b95506108d28960c08a0161075c565b94506101408801359350610160880135925061018088013567ffffffffffffffff8111156108fe575f80fd5b61090a8a828b0161076c565b989b979a50959850939692959293505050565b5f805f806101008587031215610931575f80fd5b843561093c8161072f565b935061094b8660208701610746565b925060c085013561095b8161072f565b915060e0850135600281900b8114610971575f80fd5b939692955090935050565b5f806020838503121561098d575f80fd5b823567ffffffffffffffff8111156109a3575f80fd5b6109af8582860161076c565b90969095509350505050565b602081525f82518060208401528060208501604085015e5f604082850101526040601f19601f83011684010191505092915050565b5f805f805f806101608789031215610a06575f80fd5b8635610a118161072f565b9550610a208860208901610746565b9450610a2f8860c08901610828565b9350610120870135925061014087013567ffffffffffffffff811115610a53575f80fd5b610a5f89828a0161076c565b979a9699509497509295939492505050565b5f805f805f806101208789031215610a87575f80fd5b8635610a928161072f565b9550610aa18860208901610746565b945060c0870135935060e0870135925061010087013567ffffffffffffffff811115610a53575f80fd5b8151151581526101c081016020830151610ae9602084018215159052565b506040830151610afd604084018215159052565b506060830151610b11606084018215159052565b506080830151610b25608084018215159052565b5060a0830151610b3960a084018215159052565b5060c0830151610b4d60c084018215159052565b5060e0830151610b6160e084018215159052565b50610100830151610b7761010084018215159052565b50610120830151610b8d61012084018215159052565b50610140830151610ba361014084018215159052565b50610160830151610bb961016084018215159052565b50610180830151610bcf61018084018215159052565b506101a0830151610be56101a084018215159052565b5092915050565b5f805f60e08486031215610bfe575f80fd5b8335610c098161072f565b9250610c188560208601610746565b915060c0840135610c288161072f565b809150509250925092565b5f60208284031215610c43575f80fd5b81358015158114610c52575f80fd5b9392505050565b5f81600f0b6f7fffffffffffffffffffffffffffffff198103610c8a57634e487b7160e01b5f52601160045260245ffd5b5f0392915050565b5f60208284031215610ca2575f80fd5b8135610c528161072f565b818382375f910190815291905056fea2646970667358221220ccc23de02930b98eac9cb935a081bdd998ec8596a5697a6c3da43b3e66d497eb64736f6c634300081a0033000000000000000000000000498581ff718922c3f8e6a244956af099b2652b2b",
        "nonce": "0x1",
        "chainId": "0x2105"
      },
      "additionalContracts": [],
      "isFixedGasLimit": false
    },
    {
      "hash": "0x2aaa6b219606c090ac2a31a5ce095134ca2ab03a5c9550ff73abafe3913c4587",
      "transactionType": "CREATE",
      "contractName": "MockERC20",
      "contractAddress": "0xcc6e512f294de91f80943f378813fde69f9e3e04",
      "function": null,
      "arguments": [
        "MockTokenA",
        "MOCKA",
        "18"
      ],
      "transaction": {
        "from": "0x14b483fea5ce2e34c4e6a9581084babdefea7651",
        "gas": "0xed56d",
        "value": "0x0",
        "input": "0x60e060405234801561000f575f80fd5b50604051610f62380380610f6283398101604081905261002e916101a1565b8282825f61003c84826102a2565b50600161004983826102a2565b5060ff81166080524660a05261005d61006c565b60c052506103cd945050505050565b5f7f8b73c3c69bb8fe3d512ecc4cf759cc79239f7b179b0ffacaa9a75d522b39400f5f60405161009c919061035c565b6040805191829003822060208301939093528101919091527fc89efdaa54c0f20c7adf612882df0950f5a951637e0307cdcb4c672f298b8bc660608201524660808201523060a082015260c00160405160208183030381529060405280519060200120905090565b634e487b7160e01b5f52604160045260245ffd5b5f82601f830112610127575f80fd5b81516001600160401b0381111561014057610140610104565b604051601f8201601f19908116603f011681016001600160401b038111828210171561016e5761016e610104565b604052818152838201602001851015610185575f80fd5b8160208501602083015e5f918101602001919091529392505050565b5f805f606084860312156101b3575f80fd5b83516001600160401b038111156101c8575f80fd5b6101d486828701610118565b602086015190945090506001600160401b038111156101f1575f80fd5b6101fd86828701610118565b925050604084015160ff81168114610213575f80fd5b809150509250925092565b600181811c9082168061023257607f821691505b60208210810361025057634e487b7160e01b5f52602260045260245ffd5b50919050565b601f82111561029d57805f5260205f20601f840160051c8101602085101561027b5750805b601f840160051c820191505b8181101561029a575f8155600101610287565b50505b505050565b81516001600160401b038111156102bb576102bb610104565b6102cf816102c9845461021e565b84610256565b6020601f821160018114610301575f83156102ea5750848201515b5f19600385901b1c1916600184901b17845561029a565b5f84815260208120601f198516915b828110156103305787850151825560209485019460019092019101610310565b508482101561034d57868401515f19600387901b60f8161c191681555b50505050600190811b01905550565b5f8083546103698161021e565b6001821680156103805760018114610395576103c2565b60ff19831686528115158202860193506103c2565b865f5260205f205f5b838110156103ba5781548882015260019091019060200161039e565b505081860193505b509195945050505050565b60805160a05160c051610b6b6103f75f395f61045c01525f61042701525f6101590152610b6b5ff3fe608060405234801561000f575f80fd5b50600436106100e5575f3560e01c806370a08231116100885780639dc29fac116100635780639dc29fac146101f0578063a9059cbb14610203578063d505accf14610216578063dd62ed3e14610229575f80fd5b806370a08231146101aa5780637ecebe00146101c957806395d89b41146101e8575f80fd5b806323b872dd116100c357806323b872dd14610141578063313ce567146101545780633644e5151461018d57806340c10f1914610195575f80fd5b806306fdde03146100e9578063095ea7b31461010757806318160ddd1461012a575b5f80fd5b6100f1610253565b6040516100fe9190610897565b60405180910390f35b61011a6101153660046108e7565b6102de565b60405190151581526020016100fe565b61013360025481565b6040519081526020016100fe565b61011a61014f36600461090f565b61034a565b61017b7f000000000000000000000000000000000000000000000000000000000000000081565b60405160ff90911681526020016100fe565b610133610424565b6101a86101a33660046108e7565b61047e565b005b6101336101b8366004610949565b60036020525f908152604090205481565b6101336101d7366004610949565b60056020525f908152604090205481565b6100f161048c565b6101a86101fe3660046108e7565b610499565b61011a6102113660046108e7565b6104a3565b6101a8610224366004610969565b610506565b6101336102373660046109d6565b600460209081525f928352604080842090915290825290205481565b5f805461025f90610a07565b80601f016020809104026020016040519081016040528092919081815260200182805461028b90610a07565b80156102d65780601f106102ad576101008083540402835291602001916102d6565b820191905f5260205f20905b8154815290600101906020018083116102b957829003601f168201915b505050505081565b335f8181526004602090815260408083206001600160a01b038716808552925280832085905551919290917f8c5be1e5ebec7d5bd14f71427d1e84f3dd0314c0f7b2291e5b200ac8c7c3b925906103389086815260200190565b60405180910390a35060015b92915050565b6001600160a01b0383165f9081526004602090815260408083203384529091528120545f1981146103a35761037f8382610a53565b6001600160a01b0386165f9081526004602090815260408083203384529091529020555b6001600160a01b0385165f90815260036020526040812080548592906103ca908490610a53565b90915550506001600160a01b038085165f81815260036020526040908190208054870190555190918716905f80516020610b16833981519152906104119087815260200190565b60405180910390a3506001949350505050565b5f7f0000000000000000000000000000000000000000000000000000000000000000461461045957610454610749565b905090565b507f000000000000000000000000000000000000000000000000000000000000000090565b61048882826107e1565b5050565b6001805461025f90610a07565b6104888282610838565b335f908152600360205260408120805483919083906104c3908490610a53565b90915550506001600160a01b0383165f81815260036020526040908190208054850190555133905f80516020610b16833981519152906103389086815260200190565b4284101561055b5760405162461bcd60e51b815260206004820152601760248201527f5045524d49545f444541444c494e455f4558504952454400000000000000000060448201526064015b60405180910390fd5b5f6001610566610424565b6001600160a01b038a81165f8181526005602090815260409182902080546001810190915582517f6e71edae12b1b97f4d1f60370fef10105fa2faae0126114a169c64845d6126c98184015280840194909452938d166060840152608083018c905260a083019390935260c08083018b90528151808403909101815260e08301909152805192019190912061190160f01b6101008301526101028201929092526101228101919091526101420160408051601f1981840301815282825280516020918201205f84529083018083525260ff871690820152606081018590526080810184905260a0016020604051602081039080840390855afa15801561066e573d5f803e3d5ffd5b5050604051601f1901519150506001600160a01b038116158015906106a45750876001600160a01b0316816001600160a01b0316145b6106e15760405162461bcd60e51b815260206004820152600e60248201526d24a72b20a624a22fa9a4a3a722a960911b6044820152606401610552565b6001600160a01b039081165f9081526004602090815260408083208a8516808552908352928190208990555188815291928a16917f8c5be1e5ebec7d5bd14f71427d1e84f3dd0314c0f7b2291e5b200ac8c7c3b925910160405180910390a350505050505050565b5f7f8b73c3c69bb8fe3d512ecc4cf759cc79239f7b179b0ffacaa9a75d522b39400f5f6040516107799190610a66565b6040805191829003822060208301939093528101919091527fc89efdaa54c0f20c7adf612882df0950f5a951637e0307cdcb4c672f298b8bc660608201524660808201523060a082015260c00160405160208183030381529060405280519060200120905090565b8060025f8282546107f29190610b02565b90915550506001600160a01b0382165f818152600360209081526040808320805486019055518481525f80516020610b1683398151915291015b60405180910390a35050565b6001600160a01b0382165f908152600360205260408120805483929061085f908490610a53565b90915550506002805482900390556040518181525f906001600160a01b038416905f80516020610b168339815191529060200161082c565b602081525f82518060208401528060208501604085015e5f604082850101526040601f19601f83011684010191505092915050565b80356001600160a01b03811681146108e2575f80fd5b919050565b5f80604083850312156108f8575f80fd5b610901836108cc565b946020939093013593505050565b5f805f60608486031215610921575f80fd5b61092a846108cc565b9250610938602085016108cc565b929592945050506040919091013590565b5f60208284031215610959575f80fd5b610962826108cc565b9392505050565b5f805f805f805f60e0888a03121561097f575f80fd5b610988886108cc565b9650610996602089016108cc565b95506040880135945060608801359350608088013560ff811681146109b9575f80fd5b9699959850939692959460a0840135945060c09093013592915050565b5f80604083850312156109e7575f80fd5b6109f0836108cc565b91506109fe602084016108cc565b90509250929050565b600181811c90821680610a1b57607f821691505b602082108103610a3957634e487b7160e01b5f52602260045260245ffd5b50919050565b634e487b7160e01b5f52601160045260245ffd5b8181038181111561034457610344610a3f565b5f8083545f8160011c90506001821680610a8157607f821691505b602082108103610a9f57634e487b7160e01b5f52602260045260245ffd5b808015610ab35760018114610ac857610af6565b60ff1984168752821515830287019450610af6565b5f888152602090205f5b84811015610aee57815489820152600190910190602001610ad2565b505082870194505b50929695505050505050565b8082018082111561034457610344610a3f56feddf252ad1be2c89b69c2b068fc378daa952ba7f163c4a11628f55a4df523b3efa264697066735822122011d46c26418dfca51b1d2927055d6dc345a18b7f2eb702a6b4c78d9eae09821164736f6c634300081a0033000000000000000000000000000000000000000000000000000000000000006000000000000000000000000000000000000000000000000000000000000000a00000000000000000000000000000000000000000000000000000000000000012000000000000000000000000000000000000000000000000000000000000000a4d6f636b546f6b656e410000000000000000000000000000000000000000000000000000000000000000000000000000000000000000000000000000000000054d4f434b41000000000000000000000000000000000000000000000000000000",
        "nonce": "0x2",
        "chainId": "0x2105"
      },
      "additionalContracts": [],
      "isFixedGasLimit": false
    },
    {
      "hash": "0x1d44cdeb0c961e2a6d6151da1eb4417973d01bd568bb75dc4d18d2ff97c83e77",
      "transactionType": "CREATE",
      "contractName": "MockERC20",
      "contractAddress": "0xeb4ad181e73b5cd10387a824d6ec9602c151ab71",
      "function": null,
      "arguments": [
        "MockTokenB",
        "MOCKB",
        "18"
      ],
      "transaction": {
        "from": "0x14b483fea5ce2e34c4e6a9581084babdefea7651",
        "gas": "0xed56d",
        "value": "0x0",
        "input": "0x60e060405234801561000f575f80fd5b50604051610f62380380610f6283398101604081905261002e916101a1565b8282825f61003c84826102a2565b50600161004983826102a2565b5060ff81166080524660a05261005d61006c565b60c052506103cd945050505050565b5f7f8b73c3c69bb8fe3d512ecc4cf759cc79239f7b179b0ffacaa9a75d522b39400f5f60405161009c919061035c565b6040805191829003822060208301939093528101919091527fc89efdaa54c0f20c7adf612882df0950f5a951637e0307cdcb4c672f298b8bc660608201524660808201523060a082015260c00160405160208183030381529060405280519060200120905090565b634e487b7160e01b5f52604160045260245ffd5b5f82601f830112610127575f80fd5b81516001600160401b0381111561014057610140610104565b604051601f8201601f19908116603f011681016001600160401b038111828210171561016e5761016e610104565b604052818152838201602001851015610185575f80fd5b8160208501602083015e5f918101602001919091529392505050565b5f805f606084860312156101b3575f80fd5b83516001600160401b038111156101c8575f80fd5b6101d486828701610118565b602086015190945090506001600160401b038111156101f1575f80fd5b6101fd86828701610118565b925050604084015160ff81168114610213575f80fd5b809150509250925092565b600181811c9082168061023257607f821691505b60208210810361025057634e487b7160e01b5f52602260045260245ffd5b50919050565b601f82111561029d57805f5260205f20601f840160051c8101602085101561027b5750805b601f840160051c820191505b8181101561029a575f8155600101610287565b50505b505050565b81516001600160401b038111156102bb576102bb610104565b6102cf816102c9845461021e565b84610256565b6020601f821160018114610301575f83156102ea5750848201515b5f19600385901b1c1916600184901b17845561029a565b5f84815260208120601f198516915b828110156103305787850151825560209485019460019092019101610310565b508482101561034d57868401515f19600387901b60f8161c191681555b50505050600190811b01905550565b5f8083546103698161021e565b6001821680156103805760018114610395576103c2565b60ff19831686528115158202860193506103c2565b865f5260205f205f5b838110156103ba5781548882015260019091019060200161039e565b505081860193505b509195945050505050565b60805160a05160c051610b6b6103f75f395f61045c01525f61042701525f6101590152610b6b5ff3fe608060405234801561000f575f80fd5b50600436106100e5575f3560e01c806370a08231116100885780639dc29fac116100635780639dc29fac146101f0578063a9059cbb14610203578063d505accf14610216578063dd62ed3e14610229575f80fd5b806370a08231146101aa5780637ecebe00146101c957806395d89b41146101e8575f80fd5b806323b872dd116100c357806323b872dd14610141578063313ce567146101545780633644e5151461018d57806340c10f1914610195575f80fd5b806306fdde03146100e9578063095ea7b31461010757806318160ddd1461012a575b5f80fd5b6100f1610253565b6040516100fe9190610897565b60405180910390f35b61011a6101153660046108e7565b6102de565b60405190151581526020016100fe565b61013360025481565b6040519081526020016100fe565b61011a61014f36600461090f565b61034a565b61017b7f000000000000000000000000000000000000000000000000000000000000000081565b60405160ff90911681526020016100fe565b610133610424565b6101a86101a33660046108e7565b61047e565b005b6101336101b8366004610949565b60036020525f908152604090205481565b6101336101d7366004610949565b60056020525f908152604090205481565b6100f161048c565b6101a86101fe3660046108e7565b610499565b61011a6102113660046108e7565b6104a3565b6101a8610224366004610969565b610506565b6101336102373660046109d6565b600460209081525f928352604080842090915290825290205481565b5f805461025f90610a07565b80601f016020809104026020016040519081016040528092919081815260200182805461028b90610a07565b80156102d65780601f106102ad576101008083540402835291602001916102d6565b820191905f5260205f20905b8154815290600101906020018083116102b957829003601f168201915b505050505081565b335f8181526004602090815260408083206001600160a01b038716808552925280832085905551919290917f8c5be1e5ebec7d5bd14f71427d1e84f3dd0314c0f7b2291e5b200ac8c7c3b925906103389086815260200190565b60405180910390a35060015b92915050565b6001600160a01b0383165f9081526004602090815260408083203384529091528120545f1981146103a35761037f8382610a53565b6001600160a01b0386165f9081526004602090815260408083203384529091529020555b6001600160a01b0385165f90815260036020526040812080548592906103ca908490610a53565b90915550506001600160a01b038085165f81815260036020526040908190208054870190555190918716905f80516020610b16833981519152906104119087815260200190565b60405180910390a3506001949350505050565b5f7f0000000000000000000000000000000000000000000000000000000000000000461461045957610454610749565b905090565b507f000000000000000000000000000000000000000000000000000000000000000090565b61048882826107e1565b5050565b6001805461025f90610a07565b6104888282610838565b335f908152600360205260408120805483919083906104c3908490610a53565b90915550506001600160a01b0383165f81815260036020526040908190208054850190555133905f80516020610b16833981519152906103389086815260200190565b4284101561055b5760405162461bcd60e51b815260206004820152601760248201527f5045524d49545f444541444c494e455f4558504952454400000000000000000060448201526064015b60405180910390fd5b5f6001610566610424565b6001600160a01b038a81165f8181526005602090815260409182902080546001810190915582517f6e71edae12b1b97f4d1f60370fef10105fa2faae0126114a169c64845d6126c98184015280840194909452938d166060840152608083018c905260a083019390935260c08083018b90528151808403909101815260e08301909152805192019190912061190160f01b6101008301526101028201929092526101228101919091526101420160408051601f1981840301815282825280516020918201205f84529083018083525260ff871690820152606081018590526080810184905260a0016020604051602081039080840390855afa15801561066e573d5f803e3d5ffd5b5050604051601f1901519150506001600160a01b038116158015906106a45750876001600160a01b0316816001600160a01b0316145b6106e15760405162461bcd60e51b815260206004820152600e60248201526d24a72b20a624a22fa9a4a3a722a960911b6044820152606401610552565b6001600160a01b039081165f9081526004602090815260408083208a8516808552908352928190208990555188815291928a16917f8c5be1e5ebec7d5bd14f71427d1e84f3dd0314c0f7b2291e5b200ac8c7c3b925910160405180910390a350505050505050565b5f7f8b73c3c69bb8fe3d512ecc4cf759cc79239f7b179b0ffacaa9a75d522b39400f5f6040516107799190610a66565b6040805191829003822060208301939093528101919091527fc89efdaa54c0f20c7adf612882df0950f5a951637e0307cdcb4c672f298b8bc660608201524660808201523060a082015260c00160405160208183030381529060405280519060200120905090565b8060025f8282546107f29190610b02565b90915550506001600160a01b0382165f818152600360209081526040808320805486019055518481525f80516020610b1683398151915291015b60405180910390a35050565b6001600160a01b0382165f908152600360205260408120805483929061085f908490610a53565b90915550506002805482900390556040518181525f906001600160a01b038416905f80516020610b168339815191529060200161082c565b602081525f82518060208401528060208501604085015e5f604082850101526040601f19601f83011684010191505092915050565b80356001600160a01b03811681146108e2575f80fd5b919050565b5f80604083850312156108f8575f80fd5b610901836108cc565b946020939093013593505050565b5f805f60608486031215610921575f80fd5b61092a846108cc565b9250610938602085016108cc565b929592945050506040919091013590565b5f60208284031215610959575f80fd5b610962826108cc565b9392505050565b5f805f805f805f60e0888a03121561097f575f80fd5b610988886108cc565b9650610996602089016108cc565b95506040880135945060608801359350608088013560ff811681146109b9575f80fd5b9699959850939692959460a0840135945060c09093013592915050565b5f80604083850312156109e7575f80fd5b6109f0836108cc565b91506109fe602084016108cc565b90509250929050565b600181811c90821680610a1b57607f821691505b602082108103610a3957634e487b7160e01b5f52602260045260245ffd5b50919050565b634e487b7160e01b5f52601160045260245ffd5b8181038181111561034457610344610a3f565b5f8083545f8160011c90506001821680610a8157607f821691505b602082108103610a9f57634e487b7160e01b5f52602260045260245ffd5b808015610ab35760018114610ac857610af6565b60ff1984168752821515830287019450610af6565b5f888152602090205f5b84811015610aee57815489820152600190910190602001610ad2565b505082870194505b50929695505050505050565b8082018082111561034457610344610a3f56feddf252ad1be2c89b69c2b068fc378daa952ba7f163c4a11628f55a4df523b3efa264697066735822122011d46c26418dfca51b1d2927055d6dc345a18b7f2eb702a6b4c78d9eae09821164736f6c634300081a0033000000000000000000000000000000000000000000000000000000000000006000000000000000000000000000000000000000000000000000000000000000a00000000000000000000000000000000000000000000000000000000000000012000000000000000000000000000000000000000000000000000000000000000a4d6f636b546f6b656e420000000000000000000000000000000000000000000000000000000000000000000000000000000000000000000000000000000000054d4f434b42000000000000000000000000000000000000000000000000000000",
        "nonce": "0x3",
        "chainId": "0x2105"
      },
      "additionalContracts": [],
      "isFixedGasLimit": false
    },
    {
      "hash": "0x45b4da970d2973484570dbd3cce614c4a8872255f8c9b2a376b6b13607ce964d",
      "transactionType": "CALL",
      "contractName": "MockERC20",
      "contractAddress": "0xcc6e512f294de91f80943f378813fde69f9e3e04",
      "function": "mint(address,uint256)",
      "arguments": [
        "0x14B483FEa5ce2E34c4e6A9581084BABdEfeA7651",
        "10000000000000000000000"
      ],
      "transaction": {
        "from": "0x14b483fea5ce2e34c4e6a9581084babdefea7651",
        "to": "0xcc6e512f294de91f80943f378813fde69f9e3e04",
        "gas": "0x18675",
        "value": "0x0",
        "input": "0x40c10f1900000000000000000000000014b483fea5ce2e34c4e6a9581084babdefea765100000000000000000000000000000000000000000000021e19e0c9bab2400000",
        "nonce": "0x4",
        "chainId": "0x2105"
      },
      "additionalContracts": [],
      "isFixedGasLimit": false
    },
    {
      "hash": "0xa3c36c374024e5f44528199e9858df936bb983ba202bae2d8771f649b3300439",
      "transactionType": "CALL",
      "contractName": "MockERC20",
      "contractAddress": "0xeb4ad181e73b5cd10387a824d6ec9602c151ab71",
      "function": "mint(address,uint256)",
      "arguments": [
        "0x14B483FEa5ce2E34c4e6A9581084BABdEfeA7651",
        "10000000000000000000000"
      ],
      "transaction": {
        "from": "0x14b483fea5ce2e34c4e6a9581084babdefea7651",
        "to": "0xeb4ad181e73b5cd10387a824d6ec9602c151ab71",
        "gas": "0x18675",
        "value": "0x0",
        "input": "0x40c10f1900000000000000000000000014b483fea5ce2e34c4e6a9581084babdefea765100000000000000000000000000000000000000000000021e19e0c9bab2400000",
        "nonce": "0x5",
        "chainId": "0x2105"
      },
      "additionalContracts": [],
      "isFixedGasLimit": false
    },
    {
      "hash": "0x06569751dbcb8d69270f6a571420f123aab8c9abf50118256a214b52561e0676",
      "transactionType": "CALL",
      "contractName": "MockERC20",
      "contractAddress": "0xcc6e512f294de91f80943f378813fde69f9e3e04",
      "function": "approve(address,uint256)",
      "arguments": [
        "0x000000000022D473030F116dDEE9F6B43aC78BA3",
        "115792089237316195423570985008687907853269984665640564039457584007913129639935"
      ],
      "transaction": {
        "from": "0x14b483fea5ce2e34c4e6a9581084babdefea7651",
        "to": "0xcc6e512f294de91f80943f378813fde69f9e3e04",
        "gas": "0x1093b",
        "value": "0x0",
        "input": "0x095ea7b3000000000000000000000000000000000022d473030f116ddee9f6b43ac78ba3ffffffffffffffffffffffffffffffffffffffffffffffffffffffffffffffff",
        "nonce": "0x6",
        "chainId": "0x2105"
      },
      "additionalContracts": [],
      "isFixedGasLimit": false
    },
    {
      "hash": "0xfdf50cabcf42f31ffdd206b8e894f9cdd04795ddbbdafe1cf6ee3027251f71e0",
      "transactionType": "CALL",
      "contractName": null,
      "contractAddress": "0x000000000022d473030f116ddee9f6b43ac78ba3",
      "function": "approve(address,address,uint160,uint48)",
      "arguments": [
        "0xcC6E512f294De91f80943f378813fde69F9e3e04",
        "0x7C5f5A4bBd8fD63184577525326123B519429bDc",
        "1461501637330902918203684832716283019655932542975",
        "281474976710655"
      ],
      "transaction": {
        "from": "0x14b483fea5ce2e34c4e6a9581084babdefea7651",
        "to": "0x000000000022d473030f116ddee9f6b43ac78ba3",
        "gas": "0x1112d",
        "value": "0x0",
        "input": "0x87517c45000000000000000000000000cc6e512f294de91f80943f378813fde69f9e3e040000000000000000000000007c5f5a4bbd8fd63184577525326123b519429bdc000000000000000000000000ffffffffffffffffffffffffffffffffffffffff0000000000000000000000000000000000000000000000000000ffffffffffff",
        "nonce": "0x7",
        "chainId": "0x2105"
      },
      "additionalContracts": [],
      "isFixedGasLimit": false
    },
    {
      "hash": "0x07af8470033a5c201b4bbe97fd6bd3cfe5fc3843c3c6a6c5e06ab0c1e4f424d0",
      "transactionType": "CALL",
      "contractName": "MockERC20",
      "contractAddress": "0xeb4ad181e73b5cd10387a824d6ec9602c151ab71",
      "function": "approve(address,uint256)",
      "arguments": [
        "0x000000000022D473030F116dDEE9F6B43aC78BA3",
        "115792089237316195423570985008687907853269984665640564039457584007913129639935"
      ],
      "transaction": {
        "from": "0x14b483fea5ce2e34c4e6a9581084babdefea7651",
        "to": "0xeb4ad181e73b5cd10387a824d6ec9602c151ab71",
        "gas": "0x1093b",
        "value": "0x0",
        "input": "0x095ea7b3000000000000000000000000000000000022d473030f116ddee9f6b43ac78ba3ffffffffffffffffffffffffffffffffffffffffffffffffffffffffffffffff",
        "nonce": "0x8",
        "chainId": "0x2105"
      },
      "additionalContracts": [],
      "isFixedGasLimit": false
    },
    {
      "hash": "0x87cc9449c4600d082a027bb100babf56f3cf37a02568575718fe62b4e708f9bb",
      "transactionType": "CALL",
      "contractName": null,
      "contractAddress": "0x000000000022d473030f116ddee9f6b43ac78ba3",
      "function": "approve(address,address,uint160,uint48)",
      "arguments": [
        "0xeB4AD181E73b5cd10387A824D6eC9602c151aB71",
        "0x7C5f5A4bBd8fD63184577525326123B519429bDc",
        "1461501637330902918203684832716283019655932542975",
        "281474976710655"
      ],
      "transaction": {
        "from": "0x14b483fea5ce2e34c4e6a9581084babdefea7651",
        "to": "0x000000000022d473030f116ddee9f6b43ac78ba3",
        "gas": "0x1112d",
        "value": "0x0",
        "input": "0x87517c45000000000000000000000000eb4ad181e73b5cd10387a824d6ec9602c151ab710000000000000000000000007c5f5a4bbd8fd63184577525326123b519429bdc000000000000000000000000ffffffffffffffffffffffffffffffffffffffff0000000000000000000000000000000000000000000000000000ffffffffffff",
        "nonce": "0x9",
        "chainId": "0x2105"
      },
      "additionalContracts": [],
      "isFixedGasLimit": false
    },
    {
      "hash": "0x57c8b4347628ec85880be4f7d6a34d39dbbae3b015d2a4fba4560337d3ad746d",
      "transactionType": "CALL",
      "contractName": "MockERC20",
      "contractAddress": "0xcc6e512f294de91f80943f378813fde69f9e3e04",
      "function": "approve(address,uint256)",
      "arguments": [
        "0xC6351303897A2c274cA2c06D06e987b88F7dbCbE",
        "115792089237316195423570985008687907853269984665640564039457584007913129639935"
      ],
      "transaction": {
        "from": "0x14b483fea5ce2e34c4e6a9581084babdefea7651",
        "to": "0xcc6e512f294de91f80943f378813fde69f9e3e04",
        "gas": "0xfad1",
        "value": "0x0",
        "input": "0x095ea7b3000000000000000000000000c6351303897a2c274ca2c06d06e987b88f7dbcbeffffffffffffffffffffffffffffffffffffffffffffffffffffffffffffffff",
        "nonce": "0xa",
        "chainId": "0x2105"
      },
      "additionalContracts": [],
      "isFixedGasLimit": false
    },
    {
      "hash": "0xb0b8370fa1ce63adbc0616396477b9bb653d0747fdb58d521b22210988c0edc6",
      "transactionType": "CALL",
      "contractName": "MockERC20",
      "contractAddress": "0xeb4ad181e73b5cd10387a824d6ec9602c151ab71",
      "function": "approve(address,uint256)",
      "arguments": [
        "0xC6351303897A2c274cA2c06D06e987b88F7dbCbE",
        "115792089237316195423570985008687907853269984665640564039457584007913129639935"
      ],
      "transaction": {
        "from": "0x14b483fea5ce2e34c4e6a9581084babdefea7651",
        "to": "0xeb4ad181e73b5cd10387a824d6ec9602c151ab71",
        "gas": "0xfad1",
        "value": "0x0",
        "input": "0x095ea7b3000000000000000000000000c6351303897a2c274ca2c06d06e987b88f7dbcbeffffffffffffffffffffffffffffffffffffffffffffffffffffffffffffffff",
        "nonce": "0xb",
        "chainId": "0x2105"
      },
      "additionalContracts": [],
      "isFixedGasLimit": false
    },
    {
      "hash": "0xe5cef8a3421bd22bd71b21331f51e6e1775f6c197ba72072804efa48783b7b38",
      "transactionType": "CALL",
      "contractName": null,
      "contractAddress": "0x498581ff718922c3f8e6a244956af099b2652b2b",
      "function": "initialize((address,address,uint24,int24,address),uint160)",
      "arguments": [
        "(0xcC6E512f294De91f80943f378813fde69F9e3e04, 0xeB4AD181E73b5cd10387A824D6eC9602c151aB71, 5000, 60, 0x352487cF769016805B332607DBFdA6cA46404044)",
        "79228162514264337593543950336"
      ],
      "transaction": {
        "from": "0x14b483fea5ce2e34c4e6a9581084babdefea7651",
        "to": "0x498581ff718922c3f8e6a244956af099b2652b2b",
        "gas": "0x127b6",
        "value": "0x0",
        "input": "0x6276cbbe000000000000000000000000cc6e512f294de91f80943f378813fde69f9e3e04000000000000000000000000eb4ad181e73b5cd10387a824d6ec9602c151ab710000000000000000000000000000000000000000000000000000000000001388000000000000000000000000000000000000000000000000000000000000003c000000000000000000000000352487cf769016805b332607dbfda6ca464040440000000000000000000000000000000000000001000000000000000000000000",
        "nonce": "0xc",
        "chainId": "0x2105"
      },
      "additionalContracts": [],
      "isFixedGasLimit": false
    },
    {
      "hash": "0x0297e602ac3d3023de0e1929bcfa0853cb4eea5cf8b89946a0324b9e71fd8155",
      "transactionType": "CALL",
      "contractName": null,
      "contractAddress": "0x7c5f5a4bbd8fd63184577525326123b519429bdc",
      "function": "modifyLiquidities(bytes,uint256)",
      "arguments": [
        "0x000000000000000000000000000000000000000000000000000000000000004000000000000000000000000000000000000000000000000000000000000000800000000000000000000000000000000000000000000000000000000000000002020d00000000000000000000000000000000000000000000000000000000000000000000000000000000000000000000000000000000000000000000000000020000000000000000000000000000000000000000000000000000000000000040000000000000000000000000000000000000000000000000000000000000020000000000000000000000000000000000000000000000000000000000000001a0000000000000000000000000cc6e512f294de91f80943f378813fde69f9e3e04000000000000000000000000eb4ad181e73b5cd10387a824d6ec9602c151ab710000000000000000000000000000000000000000000000000000000000001388000000000000000000000000000000000000000000000000000000000000003c000000000000000000000000352487cf769016805b332607dbfda6ca46404044fffffffffffffffffffffffffffffffffffffffffffffffffffffffffffffda800000000000000000000000000000000000000000000000000000000000002580000000000000000000000000000000000000000000000b76ef6d7d1e8594b010000000000000000000000000000000000000000000000056bc75e2d631000010000000000000000000000000000000000000000000000056bc75e2d6310000100000000000000000000000014b483fea5ce2e34c4e6a9581084babdefea7651000000000000000000000000000000000000000000000000000000000000018000000000000000000000000000000000000000000000000000000000000000000000000000000000000000000000000000000000000000000000000000000040000000000000000000000000cc6e512f294de91f80943f378813fde69f9e3e04000000000000000000000000eb4ad181e73b5cd10387a824d6ec9602c151ab71",
        "1737928927"
      ],
      "transaction": {
        "from": "0x14b483fea5ce2e34c4e6a9581084babdefea7651",
        "to": "0x7c5f5a4bbd8fd63184577525326123b519429bdc",
        "gas": "0x9d3b2",
        "value": "0x0",
        "input": "0xdd46508f0000000000000000000000000000000000000000000000000000000000000040000000000000000000000000000000000000000000000000000000006796b0df0000000000000000000000000000000000000000000000000000000000000300000000000000000000000000000000000000000000000000000000000000004000000000000000000000000000000000000000000000000000000000000000800000000000000000000000000000000000000000000000000000000000000002020d00000000000000000000000000000000000000000000000000000000000000000000000000000000000000000000000000000000000000000000000000020000000000000000000000000000000000000000000000000000000000000040000000000000000000000000000000000000000000000000000000000000020000000000000000000000000000000000000000000000000000000000000001a0000000000000000000000000cc6e512f294de91f80943f378813fde69f9e3e04000000000000000000000000eb4ad181e73b5cd10387a824d6ec9602c151ab710000000000000000000000000000000000000000000000000000000000001388000000000000000000000000000000000000000000000000000000000000003c000000000000000000000000352487cf769016805b332607dbfda6ca46404044fffffffffffffffffffffffffffffffffffffffffffffffffffffffffffffda800000000000000000000000000000000000000000000000000000000000002580000000000000000000000000000000000000000000000b76ef6d7d1e8594b010000000000000000000000000000000000000000000000056bc75e2d631000010000000000000000000000000000000000000000000000056bc75e2d6310000100000000000000000000000014b483fea5ce2e34c4e6a9581084babdefea7651000000000000000000000000000000000000000000000000000000000000018000000000000000000000000000000000000000000000000000000000000000000000000000000000000000000000000000000000000000000000000000000040000000000000000000000000cc6e512f294de91f80943f378813fde69f9e3e04000000000000000000000000eb4ad181e73b5cd10387a824d6ec9602c151ab71",
        "nonce": "0xd",
        "chainId": "0x2105"
      },
      "additionalContracts": [],
      "isFixedGasLimit": false
    },
    {
      "hash": "0xe68901d2f0ce98b78328ed59d7abe8b395ba56df617cc4800fcbe23c5c102f6e",
      "transactionType": "CALL",
      "contractName": "MinimalRouter",
      "contractAddress": "0xc6351303897a2c274ca2c06d06e987b88f7dbcbe",
      "function": "swap((address,address,uint24,int24,address),bool,bool,uint256,bytes)",
      "arguments": [
        "(0xcC6E512f294De91f80943f378813fde69F9e3e04, 0xeB4AD181E73b5cd10387A824D6eC9602c151aB71, 5000, 60, 0x352487cF769016805B332607DBFdA6cA46404044)",
        "false",
        "false",
        "1000000000000000000",
        "0x"
      ],
      "transaction": {
        "from": "0x14b483fea5ce2e34c4e6a9581084babdefea7651",
        "to": "0xc6351303897a2c274ca2c06d06e987b88f7dbcbe",
        "gas": "0x3410e",
        "value": "0x0",
        "input": "0x5b1f47a3000000000000000000000000cc6e512f294de91f80943f378813fde69f9e3e04000000000000000000000000eb4ad181e73b5cd10387a824d6ec9602c151ab710000000000000000000000000000000000000000000000000000000000001388000000000000000000000000000000000000000000000000000000000000003c000000000000000000000000352487cf769016805b332607dbfda6ca46404044000000000000000000000000000000000000000000000000000000000000000000000000000000000000000000000000000000000000000000000000000000000000000000000000000000000000000000000000000000000de0b6b3a764000000000000000000000000000000000000000000000000000000000000000001200000000000000000000000000000000000000000000000000000000000000000",
        "nonce": "0xe",
        "chainId": "0x2105"
      },
      "additionalContracts": [],
      "isFixedGasLimit": false
    },
    {
      "hash": "0x03e66e8cc0152f8cd2198616a1212793b89fc5963b3321004ee23e553dcd1a8e",
      "transactionType": "CALL",
      "contractName": "MinimalRouter",
      "contractAddress": "0xc6351303897a2c274ca2c06d06e987b88f7dbcbe",
      "function": "swap((address,address,uint24,int24,address),bool,bool,uint256,bytes)",
      "arguments": [
        "(0xcC6E512f294De91f80943f378813fde69F9e3e04, 0xeB4AD181E73b5cd10387A824D6eC9602c151aB71, 5000, 60, 0x352487cF769016805B332607DBFdA6cA46404044)",
        "false",
        "true",
        "1000000000000000000",
        "0x"
      ],
      "transaction": {
        "from": "0x14b483fea5ce2e34c4e6a9581084babdefea7651",
        "to": "0xc6351303897a2c274ca2c06d06e987b88f7dbcbe",
        "gas": "0x30f22",
        "value": "0x0",
        "input": "0x5b1f47a3000000000000000000000000cc6e512f294de91f80943f378813fde69f9e3e04000000000000000000000000eb4ad181e73b5cd10387a824d6ec9602c151ab710000000000000000000000000000000000000000000000000000000000001388000000000000000000000000000000000000000000000000000000000000003c000000000000000000000000352487cf769016805b332607dbfda6ca46404044000000000000000000000000000000000000000000000000000000000000000000000000000000000000000000000000000000000000000000000000000000010000000000000000000000000000000000000000000000000de0b6b3a764000000000000000000000000000000000000000000000000000000000000000001200000000000000000000000000000000000000000000000000000000000000000",
        "nonce": "0xf",
        "chainId": "0x2105"
      },
      "additionalContracts": [],
      "isFixedGasLimit": false
    },
    {
      "hash": "0x60ad0c1a0a0d4fa7fe59e58a67214b0eee36172fbbc7e68742be12a2582c5060",
      "transactionType": "CALL",
      "contractName": "MinimalRouter",
      "contractAddress": "0xc6351303897a2c274ca2c06d06e987b88f7dbcbe",
      "function": "swap((address,address,uint24,int24,address),bool,bool,uint256,bytes)",
      "arguments": [
        "(0xcC6E512f294De91f80943f378813fde69F9e3e04, 0xeB4AD181E73b5cd10387A824D6eC9602c151aB71, 5000, 60, 0x352487cF769016805B332607DBFdA6cA46404044)",
        "true",
        "false",
        "1000000000000000000",
        "0x"
      ],
      "transaction": {
        "from": "0x14b483fea5ce2e34c4e6a9581084babdefea7651",
        "to": "0xc6351303897a2c274ca2c06d06e987b88f7dbcbe",
        "gas": "0x309c9",
        "value": "0x0",
        "input": "0x5b1f47a3000000000000000000000000cc6e512f294de91f80943f378813fde69f9e3e04000000000000000000000000eb4ad181e73b5cd10387a824d6ec9602c151ab710000000000000000000000000000000000000000000000000000000000001388000000000000000000000000000000000000000000000000000000000000003c000000000000000000000000352487cf769016805b332607dbfda6ca46404044000000000000000000000000000000000000000000000000000000000000000100000000000000000000000000000000000000000000000000000000000000000000000000000000000000000000000000000000000000000de0b6b3a764000000000000000000000000000000000000000000000000000000000000000001200000000000000000000000000000000000000000000000000000000000000000",
        "nonce": "0x10",
        "chainId": "0x2105"
      },
      "additionalContracts": [],
      "isFixedGasLimit": false
    },
    {
      "hash": "0x2b9bf1da57158861f9a7762373855f4be1b1bcee489803461e8241369cac7a52",
      "transactionType": "CALL",
      "contractName": "MinimalRouter",
      "contractAddress": "0xc6351303897a2c274ca2c06d06e987b88f7dbcbe",
      "function": "swap((address,address,uint24,int24,address),bool,bool,uint256,bytes)",
      "arguments": [
        "(0xcC6E512f294De91f80943f378813fde69F9e3e04, 0xeB4AD181E73b5cd10387A824D6eC9602c151aB71, 5000, 60, 0x352487cF769016805B332607DBFdA6cA46404044)",
        "true",
        "true",
        "1000000000000000000",
        "0x"
      ],
      "transaction": {
        "from": "0x14b483fea5ce2e34c4e6a9581084babdefea7651",
        "to": "0xc6351303897a2c274ca2c06d06e987b88f7dbcbe",
        "gas": "0x28791",
        "value": "0x0",
        "input": "0x5b1f47a3000000000000000000000000cc6e512f294de91f80943f378813fde69f9e3e04000000000000000000000000eb4ad181e73b5cd10387a824d6ec9602c151ab710000000000000000000000000000000000000000000000000000000000001388000000000000000000000000000000000000000000000000000000000000003c000000000000000000000000352487cf769016805b332607dbfda6ca46404044000000000000000000000000000000000000000000000000000000000000000100000000000000000000000000000000000000000000000000000000000000010000000000000000000000000000000000000000000000000de0b6b3a764000000000000000000000000000000000000000000000000000000000000000001200000000000000000000000000000000000000000000000000000000000000000",
        "nonce": "0x11",
        "chainId": "0x2105"
      },
      "additionalContracts": [],
      "isFixedGasLimit": false
    }
  ],
  "receipts": [
    {
      "status": "0x1",
      "cumulativeGasUsed": "0x1a842f8",
      "logs": [],
      "logsBloom": "0x00000000000000000000000000000000000000000000000000000000000000000000000000000000000000000000000000000000000000000000000000000000000000000000000000000000000000000000000000000000000000000000000000000000000000000000000000000000000000000000000000000000000000000000000000000000000000000000000000000000000000000000000000000000000000000000000000000000000000000000000000000000000000000000000000000000000000000000000000000000000000000000000000000000000000000000000000000000000000000000000000000000000000000000000000000000",
      "type": "0x2",
      "transactionHash": "0xeb4b06f8e64ccc475e27a06a4befde6316580f9cdfc83899be104831459f52e9",
      "transactionIndex": "0x7d",
      "blockHash": "0x89fa2cd6e6e626dac217bb34f200c5d244b8b869701295e2582b954c4ac9451b",
      "blockNumber": "0x18629e4",
      "gasUsed": "0xe31d7",
      "effectiveGasPrice": "0x15671ad",
      "from": "0x14b483fea5ce2e34c4e6a9581084babdefea7651",
      "to": null,
      "contractAddress": "0xc6351303897a2c274ca2c06d06e987b88f7dbcbe",
      "l1BaseFeeScalar": "0x8dd",
      "l1BlobBaseFee": "0xf192",
      "l1BlobBaseFeeScalar": "0x101c12",
      "l1Fee": "0x7a3de97a4e",
      "l1GasPrice": "0x1760e5cff",
      "l1GasUsed": "0x8ffc"
    },
    {
      "status": "0x1",
      "cumulativeGasUsed": "0x1becdd0",
      "logs": [],
      "logsBloom": "0x00000000000000000000000000000000000000000000000000000000000000000000000000000000000000000000000000000000000000000000000000000000000000000000000000000000000000000000000000000000000000000000000000000000000000000000000000000000000000000000000000000000000000000000000000000000000000000000000000000000000000000000000000000000000000000000000000000000000000000000000000000000000000000000000000000000000000000000000000000000000000000000000000000000000000000000000000000000000000000000000000000000000000000000000000000000",
      "type": "0x2",
      "transactionHash": "0x1243ef5541a1af7acdde36b35064b88d7ea603767ec68d591caca03286561da0",
      "transactionIndex": "0x82",
      "blockHash": "0x89fa2cd6e6e626dac217bb34f200c5d244b8b869701295e2582b954c4ac9451b",
      "blockNumber": "0x18629e4",
      "gasUsed": "0xbf5c1",
      "effectiveGasPrice": "0x15671ad",
      "from": "0x14b483fea5ce2e34c4e6a9581084babdefea7651",
      "to": "0x4e59b44847b379578588920ca78fbf26c0b4956c",
      "contractAddress": "0x352487cf769016805b332607dbfda6ca46404044",
      "l1BaseFeeScalar": "0x8dd",
      "l1BlobBaseFee": "0xf192",
      "l1BlobBaseFeeScalar": "0x101c12",
      "l1Fee": "0x76d2fbe5e1",
      "l1GasPrice": "0x1760e5cff",
      "l1GasUsed": "0x8bf6"
    },
    {
      "status": "0x1",
      "cumulativeGasUsed": "0x1ca36e9",
      "logs": [],
      "logsBloom": "0x00000000000000000000000000000000000000000000000000000000000000000000000000000000000000000000000000000000000000000000000000000000000000000000000000000000000000000000000000000000000000000000000000000000000000000000000000000000000000000000000000000000000000000000000000000000000000000000000000000000000000000000000000000000000000000000000000000000000000000000000000000000000000000000000000000000000000000000000000000000000000000000000000000000000000000000000000000000000000000000000000000000000000000000000000000000",
      "type": "0x2",
      "transactionHash": "0x2aaa6b219606c090ac2a31a5ce095134ca2ab03a5c9550ff73abafe3913c4587",
      "transactionIndex": "0x83",
      "blockHash": "0x89fa2cd6e6e626dac217bb34f200c5d244b8b869701295e2582b954c4ac9451b",
      "blockNumber": "0x18629e4",
      "gasUsed": "0xb6919",
      "effectiveGasPrice": "0x15671ad",
      "from": "0x14b483fea5ce2e34c4e6a9581084babdefea7651",
      "to": null,
      "contractAddress": "0xcc6e512f294de91f80943f378813fde69f9e3e04",
      "l1BaseFeeScalar": "0x8dd",
      "l1BlobBaseFee": "0xf192",
      "l1BlobBaseFeeScalar": "0x101c12",
      "l1Fee": "0x8467f88388",
      "l1GasPrice": "0x1760e5cff",
      "l1GasUsed": "0x9bf5"
    },
    {
      "status": "0x1",
      "cumulativeGasUsed": "0x1d5a002",
      "logs": [],
      "logsBloom": "0x00000000000000000000000000000000000000000000000000000000000000000000000000000000000000000000000000000000000000000000000000000000000000000000000000000000000000000000000000000000000000000000000000000000000000000000000000000000000000000000000000000000000000000000000000000000000000000000000000000000000000000000000000000000000000000000000000000000000000000000000000000000000000000000000000000000000000000000000000000000000000000000000000000000000000000000000000000000000000000000000000000000000000000000000000000000",
      "type": "0x2",
      "transactionHash": "0x1d44cdeb0c961e2a6d6151da1eb4417973d01bd568bb75dc4d18d2ff97c83e77",
      "transactionIndex": "0x84",
      "blockHash": "0x89fa2cd6e6e626dac217bb34f200c5d244b8b869701295e2582b954c4ac9451b",
      "blockNumber": "0x18629e4",
      "gasUsed": "0xb6919",
      "effectiveGasPrice": "0x15671ad",
      "from": "0x14b483fea5ce2e34c4e6a9581084babdefea7651",
      "to": null,
      "contractAddress": "0xeb4ad181e73b5cd10387a824d6ec9602c151ab71",
      "l1BaseFeeScalar": "0x8dd",
      "l1BlobBaseFee": "0xf192",
      "l1BlobBaseFeeScalar": "0x101c12",
      "l1Fee": "0x8467f88388",
      "l1GasPrice": "0x1760e5cff",
      "l1GasUsed": "0x9bf5"
    },
    {
      "status": "0x1",
      "cumulativeGasUsed": "0x1d6aafd",
      "logs": [
        {
          "address": "0xcc6e512f294de91f80943f378813fde69f9e3e04",
          "topics": [
            "0xddf252ad1be2c89b69c2b068fc378daa952ba7f163c4a11628f55a4df523b3ef",
            "0x0000000000000000000000000000000000000000000000000000000000000000",
            "0x00000000000000000000000014b483fea5ce2e34c4e6a9581084babdefea7651"
          ],
          "data": "0x00000000000000000000000000000000000000000000021e19e0c9bab2400000",
          "blockHash": "0x89fa2cd6e6e626dac217bb34f200c5d244b8b869701295e2582b954c4ac9451b",
          "blockNumber": "0x18629e4",
          "transactionHash": "0x45b4da970d2973484570dbd3cce614c4a8872255f8c9b2a376b6b13607ce964d",
          "transactionIndex": "0x85",
          "logIndex": "0x164",
          "removed": false
        }
      ],
      "logsBloom": "0x00000000000000000000000000000000000000000000200000000000000000000000080000000000000000000000000000000000000100000000000000000000000000000000000000000008000000000000000000800000000000000000000000000000020000000000000000800800000000000000000000000010000000000000000000000000000000000000000000000000000000000000000000000000000000000000000000000000000000000000000000000000000000000000000000000002000000000000000000000000000000000000000000000000000020000001000000000000000000000000000000000000000000000000000000000000",
      "type": "0x2",
      "transactionHash": "0x45b4da970d2973484570dbd3cce614c4a8872255f8c9b2a376b6b13607ce964d",
      "transactionIndex": "0x85",
      "blockHash": "0x89fa2cd6e6e626dac217bb34f200c5d244b8b869701295e2582b954c4ac9451b",
      "blockNumber": "0x18629e4",
      "gasUsed": "0x10afb",
      "effectiveGasPrice": "0x15671ad",
      "from": "0x14b483fea5ce2e34c4e6a9581084babdefea7651",
      "to": "0xcc6e512f294de91f80943f378813fde69f9e3e04",
      "contractAddress": null,
      "l1BaseFeeScalar": "0x8dd",
      "l1BlobBaseFee": "0xf192",
      "l1BlobBaseFeeScalar": "0x101c12",
      "l1Fee": "0x54e5cc98c",
      "l1GasPrice": "0x1760e5cff",
      "l1GasUsed": "0x640"
    },
    {
      "status": "0x1",
      "cumulativeGasUsed": "0x1d7b5f8",
      "logs": [
        {
          "address": "0xeb4ad181e73b5cd10387a824d6ec9602c151ab71",
          "topics": [
            "0xddf252ad1be2c89b69c2b068fc378daa952ba7f163c4a11628f55a4df523b3ef",
            "0x0000000000000000000000000000000000000000000000000000000000000000",
            "0x00000000000000000000000014b483fea5ce2e34c4e6a9581084babdefea7651"
          ],
          "data": "0x00000000000000000000000000000000000000000000021e19e0c9bab2400000",
          "blockHash": "0x89fa2cd6e6e626dac217bb34f200c5d244b8b869701295e2582b954c4ac9451b",
          "blockNumber": "0x18629e4",
          "transactionHash": "0xa3c36c374024e5f44528199e9858df936bb983ba202bae2d8771f649b3300439",
          "transactionIndex": "0x86",
          "logIndex": "0x165",
          "removed": false
        }
      ],
      "logsBloom": "0x00000000000000000000000000000000000000000000200000000000000000000000000000000000000000000000000000000000000100000000000000000000000000000000000000000008000000000000000000800000000000000000000000000000020000000000000000000800000000000000000000000010000000000000000000000000000000000000000000000000000000020000000000000000000000010000400000000000000000000000000000000000000000000000000000000002000000000000000000000000000000000000000000000000000020000000000000000000000000000000000000000000000000000000000000000000",
      "type": "0x2",
      "transactionHash": "0xa3c36c374024e5f44528199e9858df936bb983ba202bae2d8771f649b3300439",
      "transactionIndex": "0x86",
      "blockHash": "0x89fa2cd6e6e626dac217bb34f200c5d244b8b869701295e2582b954c4ac9451b",
      "blockNumber": "0x18629e4",
      "gasUsed": "0x10afb",
      "effectiveGasPrice": "0x15671ad",
      "from": "0x14b483fea5ce2e34c4e6a9581084babdefea7651",
      "to": "0xeb4ad181e73b5cd10387a824d6ec9602c151ab71",
      "contractAddress": null,
      "l1BaseFeeScalar": "0x8dd",
      "l1BlobBaseFee": "0xf192",
      "l1BlobBaseFeeScalar": "0x101c12",
      "l1Fee": "0x54e5cc98c",
      "l1GasPrice": "0x1760e5cff",
      "l1GasUsed": "0x640"
    },
    {
      "status": "0x1",
      "cumulativeGasUsed": "0x1d86b53",
      "logs": [
        {
          "address": "0xcc6e512f294de91f80943f378813fde69f9e3e04",
          "topics": [
            "0x8c5be1e5ebec7d5bd14f71427d1e84f3dd0314c0f7b2291e5b200ac8c7c3b925",
            "0x00000000000000000000000014b483fea5ce2e34c4e6a9581084babdefea7651",
            "0x000000000000000000000000000000000022d473030f116ddee9f6b43ac78ba3"
          ],
          "data": "0xffffffffffffffffffffffffffffffffffffffffffffffffffffffffffffffff",
          "blockHash": "0x89fa2cd6e6e626dac217bb34f200c5d244b8b869701295e2582b954c4ac9451b",
          "blockNumber": "0x18629e4",
          "transactionHash": "0x06569751dbcb8d69270f6a571420f123aab8c9abf50118256a214b52561e0676",
          "transactionIndex": "0x87",
          "logIndex": "0x166",
          "removed": false
        }
      ],
      "logsBloom": "0x00000000000000000000000000000000000000000000200000000000000000000000080000000000000000000000000000000000800100000000000000200000000000000000000000004000000000000000000000800800000000000000000000000000000000000000000000800000000000000000000000000000000000000000000000000000000000000000000000000000000000000000000000000000020000000000000000000000000000000000000000000000000000000000000000000000000000000000000000000000000000000000000000000000000000000011000000000000000000000000000000000000000000000000000000000000",
      "type": "0x2",
      "transactionHash": "0x06569751dbcb8d69270f6a571420f123aab8c9abf50118256a214b52561e0676",
      "transactionIndex": "0x87",
      "blockHash": "0x89fa2cd6e6e626dac217bb34f200c5d244b8b869701295e2582b954c4ac9451b",
      "blockNumber": "0x18629e4",
      "gasUsed": "0xb55b",
      "effectiveGasPrice": "0x15671ad",
      "from": "0x14b483fea5ce2e34c4e6a9581084babdefea7651",
      "to": "0xcc6e512f294de91f80943f378813fde69f9e3e04",
      "contractAddress": null,
      "l1BaseFeeScalar": "0x8dd",
      "l1BlobBaseFee": "0xf192",
      "l1BlobBaseFeeScalar": "0x101c12",
      "l1Fee": "0x54e5cc98c",
      "l1GasPrice": "0x1760e5cff",
      "l1GasUsed": "0x640"
    },
    {
      "status": "0x1",
      "cumulativeGasUsed": "0x1d9261d",
      "logs": [
        {
          "address": "0x000000000022d473030f116ddee9f6b43ac78ba3",
          "topics": [
            "0xda9fa7c1b00402c17d0161b249b1ab8bbec047c5a52207b9c112deffd817036b",
            "0x00000000000000000000000014b483fea5ce2e34c4e6a9581084babdefea7651",
            "0x000000000000000000000000cc6e512f294de91f80943f378813fde69f9e3e04",
            "0x0000000000000000000000007c5f5a4bbd8fd63184577525326123b519429bdc"
          ],
          "data": "0x000000000000000000000000ffffffffffffffffffffffffffffffffffffffff0000000000000000000000000000000000000000000000000000ffffffffffff",
          "blockHash": "0x89fa2cd6e6e626dac217bb34f200c5d244b8b869701295e2582b954c4ac9451b",
          "blockNumber": "0x18629e4",
          "transactionHash": "0xfdf50cabcf42f31ffdd206b8e894f9cdd04795ddbbdafe1cf6ee3027251f71e0",
          "transactionIndex": "0x88",
          "logIndex": "0x167",
          "removed": false
        }
      ],
      "logsBloom": "0x00010000000000000000000000000000000000000000200000000000000000000000000000000000000000000000000000000000000100000000000000082000000000000000000000000000000000000000000000800000000000000000000000000000000000000000000000000000000000000000000000000001000000000020000800000000000000000000000000000000000000000000000000000000000000000000000000000000000000000000000000080000000000080000000200000000000000000000000000000000000000000000000040000000000000000000000000000000000000000000000000000000002000000000000000000400",
      "type": "0x2",
      "transactionHash": "0xfdf50cabcf42f31ffdd206b8e894f9cdd04795ddbbdafe1cf6ee3027251f71e0",
      "transactionIndex": "0x88",
      "blockHash": "0x89fa2cd6e6e626dac217bb34f200c5d244b8b869701295e2582b954c4ac9451b",
      "blockNumber": "0x18629e4",
      "gasUsed": "0xbaca",
      "effectiveGasPrice": "0x15671ad",
      "from": "0x14b483fea5ce2e34c4e6a9581084babdefea7651",
      "to": "0x000000000022d473030f116ddee9f6b43ac78ba3",
      "contractAddress": null,
      "l1BaseFeeScalar": "0x8dd",
      "l1BlobBaseFee": "0xf192",
      "l1BlobBaseFeeScalar": "0x101c12",
      "l1Fee": "0x5f3a20fa7",
      "l1GasPrice": "0x1760e5cff",
      "l1GasUsed": "0x702"
    },
    {
      "status": "0x1",
      "cumulativeGasUsed": "0x1d9db78",
      "logs": [
        {
          "address": "0xeb4ad181e73b5cd10387a824d6ec9602c151ab71",
          "topics": [
            "0x8c5be1e5ebec7d5bd14f71427d1e84f3dd0314c0f7b2291e5b200ac8c7c3b925",
            "0x00000000000000000000000014b483fea5ce2e34c4e6a9581084babdefea7651",
            "0x000000000000000000000000000000000022d473030f116ddee9f6b43ac78ba3"
          ],
          "data": "0xffffffffffffffffffffffffffffffffffffffffffffffffffffffffffffffff",
          "blockHash": "0x89fa2cd6e6e626dac217bb34f200c5d244b8b869701295e2582b954c4ac9451b",
          "blockNumber": "0x18629e4",
          "transactionHash": "0x07af8470033a5c201b4bbe97fd6bd3cfe5fc3843c3c6a6c5e06ab0c1e4f424d0",
          "transactionIndex": "0x89",
          "logIndex": "0x168",
          "removed": false
        }
      ],
      "logsBloom": "0x00000000000000000000000000000000000000000000200000000000000000000000000000000000000000000000000000000000800100000000000000200000000000000000000000004000000000000000000000800800000000000000000000000000000000000000000000000000000000000000000000000000000000000000000000000000000000000000000000000000000000020000000000000000020000010000400000000000000000000000000000000000000000000000000000000000000000000000000000000000000000000000000000000000000000000010000000000000000000000000000000000000000000000000000000000000",
      "type": "0x2",
      "transactionHash": "0x07af8470033a5c201b4bbe97fd6bd3cfe5fc3843c3c6a6c5e06ab0c1e4f424d0",
      "transactionIndex": "0x89",
      "blockHash": "0x89fa2cd6e6e626dac217bb34f200c5d244b8b869701295e2582b954c4ac9451b",
      "blockNumber": "0x18629e4",
      "gasUsed": "0xb55b",
      "effectiveGasPrice": "0x15671ad",
      "from": "0x14b483fea5ce2e34c4e6a9581084babdefea7651",
      "to": "0xeb4ad181e73b5cd10387a824d6ec9602c151ab71",
      "contractAddress": null,
      "l1BaseFeeScalar": "0x8dd",
      "l1BlobBaseFee": "0xf192",
      "l1BlobBaseFeeScalar": "0x101c12",
      "l1Fee": "0x54e5cc98c",
      "l1GasPrice": "0x1760e5cff",
      "l1GasUsed": "0x640"
    },
    {
      "status": "0x1",
      "cumulativeGasUsed": "0x1da9642",
      "logs": [
        {
          "address": "0x000000000022d473030f116ddee9f6b43ac78ba3",
          "topics": [
            "0xda9fa7c1b00402c17d0161b249b1ab8bbec047c5a52207b9c112deffd817036b",
            "0x00000000000000000000000014b483fea5ce2e34c4e6a9581084babdefea7651",
            "0x000000000000000000000000eb4ad181e73b5cd10387a824d6ec9602c151ab71",
            "0x0000000000000000000000007c5f5a4bbd8fd63184577525326123b519429bdc"
          ],
          "data": "0x000000000000000000000000ffffffffffffffffffffffffffffffffffffffff0000000000000000000000000000000000000000000000000000ffffffffffff",
          "blockHash": "0x89fa2cd6e6e626dac217bb34f200c5d244b8b869701295e2582b954c4ac9451b",
          "blockNumber": "0x18629e4",
          "transactionHash": "0x87cc9449c4600d082a027bb100babf56f3cf37a02568575718fe62b4e708f9bb",
          "transactionIndex": "0x8a",
          "logIndex": "0x169",
          "removed": false
        }
      ],
      "logsBloom": "0x00010000000000000000000000000080000000000000200000000000000000000000000000000000000000000000000000000000000100000000000000082000000000000000000000000000000000000000000000800000000000000000000000000000000000000000000000000000000000000000000000000000000000000020000000000000000000000000000000000000000000000000000000000000000000000000000000000000000000000000000000000000000000080000000200000000000000000040000000000000000000000000000040000000000000000000000000000000000000000000000000000000002000000000000000002400",
      "type": "0x2",
      "transactionHash": "0x87cc9449c4600d082a027bb100babf56f3cf37a02568575718fe62b4e708f9bb",
      "transactionIndex": "0x8a",
      "blockHash": "0x89fa2cd6e6e626dac217bb34f200c5d244b8b869701295e2582b954c4ac9451b",
      "blockNumber": "0x18629e4",
      "gasUsed": "0xbaca",
      "effectiveGasPrice": "0x15671ad",
      "from": "0x14b483fea5ce2e34c4e6a9581084babdefea7651",
      "to": "0x000000000022d473030f116ddee9f6b43ac78ba3",
      "contractAddress": null,
      "l1BaseFeeScalar": "0x8dd",
      "l1BlobBaseFee": "0xf192",
      "l1BlobBaseFeeScalar": "0x101c12",
      "l1Fee": "0x5f3a20fa7",
      "l1GasPrice": "0x1760e5cff",
      "l1GasUsed": "0x702"
    },
    {
      "status": "0x1",
      "cumulativeGasUsed": "0x1db4bd9",
      "logs": [
        {
          "address": "0xcc6e512f294de91f80943f378813fde69f9e3e04",
          "topics": [
            "0x8c5be1e5ebec7d5bd14f71427d1e84f3dd0314c0f7b2291e5b200ac8c7c3b925",
            "0x00000000000000000000000014b483fea5ce2e34c4e6a9581084babdefea7651",
            "0x000000000000000000000000c6351303897a2c274ca2c06d06e987b88f7dbcbe"
          ],
          "data": "0xffffffffffffffffffffffffffffffffffffffffffffffffffffffffffffffff",
          "blockHash": "0x89fa2cd6e6e626dac217bb34f200c5d244b8b869701295e2582b954c4ac9451b",
          "blockNumber": "0x18629e4",
          "transactionHash": "0x57c8b4347628ec85880be4f7d6a34d39dbbae3b015d2a4fba4560337d3ad746d",
          "transactionIndex": "0x8b",
          "logIndex": "0x16a",
          "removed": false
        }
      ],
      "logsBloom": "0x00000000000000000000000000000000000000000000200000000000000002000000080000000000000000000000000000000000000100000000000000200000000000000000000000000000000000000000000000800000000000000000000000000000000000000000000000800000000000200000000000000000000000000000000000000000000000000000000000000000000000000000000000000020020000000000000000000000000000000000000000000000000000000000000000000000000000000000000000000000000000000000000000000000000000000011000000000000000000000000000000000000000000000000000000000000",
      "type": "0x2",
      "transactionHash": "0x57c8b4347628ec85880be4f7d6a34d39dbbae3b015d2a4fba4560337d3ad746d",
      "transactionIndex": "0x8b",
      "blockHash": "0x89fa2cd6e6e626dac217bb34f200c5d244b8b869701295e2582b954c4ac9451b",
      "blockNumber": "0x18629e4",
      "gasUsed": "0xb597",
      "effectiveGasPrice": "0x15671ad",
      "from": "0x14b483fea5ce2e34c4e6a9581084babdefea7651",
      "to": "0xcc6e512f294de91f80943f378813fde69f9e3e04",
      "contractAddress": null,
      "l1BaseFeeScalar": "0x8dd",
      "l1BlobBaseFee": "0xf192",
      "l1BlobBaseFeeScalar": "0x101c12",
      "l1Fee": "0x54e5cc98c",
      "l1GasPrice": "0x1760e5cff",
      "l1GasUsed": "0x640"
    },
    {
      "status": "0x1",
      "cumulativeGasUsed": "0x1dc0170",
      "logs": [
        {
          "address": "0xeb4ad181e73b5cd10387a824d6ec9602c151ab71",
          "topics": [
            "0x8c5be1e5ebec7d5bd14f71427d1e84f3dd0314c0f7b2291e5b200ac8c7c3b925",
            "0x00000000000000000000000014b483fea5ce2e34c4e6a9581084babdefea7651",
            "0x000000000000000000000000c6351303897a2c274ca2c06d06e987b88f7dbcbe"
          ],
          "data": "0xffffffffffffffffffffffffffffffffffffffffffffffffffffffffffffffff",
          "blockHash": "0x89fa2cd6e6e626dac217bb34f200c5d244b8b869701295e2582b954c4ac9451b",
          "blockNumber": "0x18629e4",
          "transactionHash": "0xb0b8370fa1ce63adbc0616396477b9bb653d0747fdb58d521b22210988c0edc6",
          "transactionIndex": "0x8c",
          "logIndex": "0x16b",
          "removed": false
        }
      ],
      "logsBloom": "0x00000000000000000000000000000000000000000000200000000000000002000000000000000000000000000000000000000000000100000000000000200000000000000000000000000000000000000000000000800000000000000000000000000000000000000000000000000000000000200000000000000000000000000000000000000000000000000000000000000000000000020000000000000020020000010000400000000000000000000000000000000000000000000000000000000000000000000000000000000000000000000000000000000000000000000010000000000000000000000000000000000000000000000000000000000000",
      "type": "0x2",
      "transactionHash": "0xb0b8370fa1ce63adbc0616396477b9bb653d0747fdb58d521b22210988c0edc6",
      "transactionIndex": "0x8c",
      "blockHash": "0x89fa2cd6e6e626dac217bb34f200c5d244b8b869701295e2582b954c4ac9451b",
      "blockNumber": "0x18629e4",
      "gasUsed": "0xb597",
      "effectiveGasPrice": "0x15671ad",
      "from": "0x14b483fea5ce2e34c4e6a9581084babdefea7651",
      "to": "0xeb4ad181e73b5cd10387a824d6ec9602c151ab71",
      "contractAddress": null,
      "l1BaseFeeScalar": "0x8dd",
      "l1BlobBaseFee": "0xf192",
      "l1BlobBaseFeeScalar": "0x101c12",
      "l1Fee": "0x54e5cc98c",
      "l1GasPrice": "0x1760e5cff",
      "l1GasUsed": "0x640"
    },
    {
      "status": "0x1",
      "cumulativeGasUsed": "0x1dccba3",
      "logs": [
        {
          "address": "0x498581ff718922c3f8e6a244956af099b2652b2b",
          "topics": [
            "0xdd466e674ea557f56295e2d0218a125ea4b4f0f6f3307b95f85e6110838d6438",
            "0x74b1eb0eb9068ed54b6b9d55673f7de8fac3299ce7e3df916e0172676d225a1a",
            "0x000000000000000000000000cc6e512f294de91f80943f378813fde69f9e3e04",
            "0x000000000000000000000000eb4ad181e73b5cd10387a824d6ec9602c151ab71"
          ],
          "data": "0x0000000000000000000000000000000000000000000000000000000000001388000000000000000000000000000000000000000000000000000000000000003c000000000000000000000000352487cf769016805b332607dbfda6ca4640404400000000000000000000000000000000000000010000000000000000000000000000000000000000000000000000000000000000000000000000000000000000",
          "blockHash": "0x89fa2cd6e6e626dac217bb34f200c5d244b8b869701295e2582b954c4ac9451b",
          "blockNumber": "0x18629e4",
          "transactionHash": "0xe5cef8a3421bd22bd71b21331f51e6e1775f6c197ba72072804efa48783b7b38",
          "transactionIndex": "0x8d",
          "logIndex": "0x16c",
          "removed": false
        }
      ],
      "logsBloom": "0x00000000000000000000000000000080000000000000000000000000000000000000000000000000000000000000000000000000000000000000000000000000000000000000000000000000000000000000000000000000000000000000000000000000000000000000000000000000000000000000000000000001000000000000000800004008000000000000000000000001000000000000000000200000000000000000000000000000000000000000000000080000000000800000000000000000000080000040000001000000000800000000000000000000000000000000000000000000000000000000000000000400000000000000000000002000",
      "type": "0x2",
      "transactionHash": "0xe5cef8a3421bd22bd71b21331f51e6e1775f6c197ba72072804efa48783b7b38",
      "transactionIndex": "0x8d",
      "blockHash": "0x89fa2cd6e6e626dac217bb34f200c5d244b8b869701295e2582b954c4ac9451b",
      "blockNumber": "0x18629e4",
      "gasUsed": "0xca33",
      "effectiveGasPrice": "0x15671ad",
      "from": "0x14b483fea5ce2e34c4e6a9581084babdefea7651",
      "to": "0x498581ff718922c3f8e6a244956af099b2652b2b",
      "contractAddress": null,
      "l1BaseFeeScalar": "0x8dd",
      "l1BlobBaseFee": "0xf192",
      "l1BlobBaseFeeScalar": "0x101c12",
      "l1Fee": "0x7a36a6cda",
      "l1GasPrice": "0x1760e5cff",
      "l1GasUsed": "0x8ff"
    },
    {
      "status": "0x1",
      "cumulativeGasUsed": "0x1e383c6",
      "logs": [
        {
          "address": "0x7c5f5a4bbd8fd63184577525326123b519429bdc",
          "topics": [
            "0xddf252ad1be2c89b69c2b068fc378daa952ba7f163c4a11628f55a4df523b3ef",
            "0x0000000000000000000000000000000000000000000000000000000000000000",
            "0x00000000000000000000000014b483fea5ce2e34c4e6a9581084babdefea7651",
            "0x0000000000000000000000000000000000000000000000000000000000000022"
          ],
          "data": "0x",
          "blockHash": "0x89fa2cd6e6e626dac217bb34f200c5d244b8b869701295e2582b954c4ac9451b",
          "blockNumber": "0x18629e4",
          "transactionHash": "0x0297e602ac3d3023de0e1929bcfa0853cb4eea5cf8b89946a0324b9e71fd8155",
          "transactionIndex": "0x8e",
          "logIndex": "0x16d",
          "removed": false
        },
        {
          "address": "0x498581ff718922c3f8e6a244956af099b2652b2b",
          "topics": [
            "0xf208f4912782fd25c7f114ca3723a2d5dd6f3bcc3ac8db5af63baa85f711d5ec",
            "0x74b1eb0eb9068ed54b6b9d55673f7de8fac3299ce7e3df916e0172676d225a1a",
            "0x0000000000000000000000007c5f5a4bbd8fd63184577525326123b519429bdc"
          ],
          "data": "0xfffffffffffffffffffffffffffffffffffffffffffffffffffffffffffffda800000000000000000000000000000000000000000000000000000000000002580000000000000000000000000000000000000000000000b76ef6d7d1e8594b010000000000000000000000000000000000000000000000000000000000000022",
          "blockHash": "0x89fa2cd6e6e626dac217bb34f200c5d244b8b869701295e2582b954c4ac9451b",
          "blockNumber": "0x18629e4",
          "transactionHash": "0x0297e602ac3d3023de0e1929bcfa0853cb4eea5cf8b89946a0324b9e71fd8155",
          "transactionIndex": "0x8e",
          "logIndex": "0x16e",
          "removed": false
        },
        {
          "address": "0xcc6e512f294de91f80943f378813fde69f9e3e04",
          "topics": [
            "0xddf252ad1be2c89b69c2b068fc378daa952ba7f163c4a11628f55a4df523b3ef",
            "0x00000000000000000000000014b483fea5ce2e34c4e6a9581084babdefea7651",
            "0x000000000000000000000000498581ff718922c3f8e6a244956af099b2652b2b"
          ],
          "data": "0x0000000000000000000000000000000000000000000000056bc75e2d63100000",
          "blockHash": "0x89fa2cd6e6e626dac217bb34f200c5d244b8b869701295e2582b954c4ac9451b",
          "blockNumber": "0x18629e4",
          "transactionHash": "0x0297e602ac3d3023de0e1929bcfa0853cb4eea5cf8b89946a0324b9e71fd8155",
          "transactionIndex": "0x8e",
          "logIndex": "0x16f",
          "removed": false
        },
        {
          "address": "0xeb4ad181e73b5cd10387a824d6ec9602c151ab71",
          "topics": [
            "0xddf252ad1be2c89b69c2b068fc378daa952ba7f163c4a11628f55a4df523b3ef",
            "0x00000000000000000000000014b483fea5ce2e34c4e6a9581084babdefea7651",
            "0x000000000000000000000000498581ff718922c3f8e6a244956af099b2652b2b"
          ],
          "data": "0x0000000000000000000000000000000000000000000000056bc75e2d63100000",
          "blockHash": "0x89fa2cd6e6e626dac217bb34f200c5d244b8b869701295e2582b954c4ac9451b",
          "blockNumber": "0x18629e4",
          "transactionHash": "0x0297e602ac3d3023de0e1929bcfa0853cb4eea5cf8b89946a0324b9e71fd8155",
          "transactionIndex": "0x8e",
          "logIndex": "0x170",
          "removed": false
        }
      ],
      "logsBloom": "0x00000000000000000000000000000000000000000000200000000000000000000020080000000000000000000000000000000000000100000000000000002000000000000000000000000008000000000000000000800000000000000000000000000000020000000000000000800800040000000000000000000010000000000000020001004000000000000000000000000000000000020000004400000000004004010000400008000000000000000000000000000000000000800000000200000002000081000000000001000000000800000000000000000000000020080001000000000000000000000000000004000400002000000000000000000000",
      "type": "0x2",
      "transactionHash": "0x0297e602ac3d3023de0e1929bcfa0853cb4eea5cf8b89946a0324b9e71fd8155",
      "transactionIndex": "0x8e",
      "blockHash": "0x89fa2cd6e6e626dac217bb34f200c5d244b8b869701295e2582b954c4ac9451b",
      "blockNumber": "0x18629e4",
      "gasUsed": "0x6b823",
      "effectiveGasPrice": "0x15671ad",
      "from": "0x14b483fea5ce2e34c4e6a9581084babdefea7651",
      "to": "0x7c5f5a4bbd8fd63184577525326123b519429bdc",
      "contractAddress": null,
      "l1BaseFeeScalar": "0x8dd",
      "l1BlobBaseFee": "0xf192",
      "l1BlobBaseFeeScalar": "0x101c12",
      "l1Fee": "0xdda31a944",
      "l1GasPrice": "0x1760e5cff",
      "l1GasUsed": "0x1051"
    },
    {
      "status": "0x1",
      "cumulativeGasUsed": "0x1e5dee5",
      "logs": [
        {
          "address": "0x498581ff718922c3f8e6a244956af099b2652b2b",
          "topics": [
            "0x40e9cecb9f5f1f1c5b9c97dec2917b7ee92e57ba5563708daca94dd84ad7112f",
            "0x74b1eb0eb9068ed54b6b9d55673f7de8fac3299ce7e3df916e0172676d225a1a",
            "0x000000000000000000000000c6351303897a2c274ca2c06d06e987b88f7dbcbe"
          ],
          "data": "0x0000000000000000000000000000000000000000000000000de0b6b3a7640000fffffffffffffffffffffffffffffffffffffffffffffffff20c60c26e8e1d77000000000000000000000000000000000000000100135fa3608ee48bf85c6c560000000000000000000000000000000000000000000000b76ef6d7d1e8594b0100000000000000000000000000000000000000000000000000000000000000050000000000000000000000000000000000000000000000000000000000001388",
          "blockHash": "0x89fa2cd6e6e626dac217bb34f200c5d244b8b869701295e2582b954c4ac9451b",
          "blockNumber": "0x18629e4",
          "transactionHash": "0xe68901d2f0ce98b78328ed59d7abe8b395ba56df617cc4800fcbe23c5c102f6e",
          "transactionIndex": "0x8f",
          "logIndex": "0x171",
          "removed": false
        },
        {
          "address": "0xeb4ad181e73b5cd10387a824d6ec9602c151ab71",
          "topics": [
            "0xddf252ad1be2c89b69c2b068fc378daa952ba7f163c4a11628f55a4df523b3ef",
            "0x000000000000000000000000498581ff718922c3f8e6a244956af099b2652b2b",
            "0x000000000000000000000000352487cf769016805b332607dbfda6ca46404044"
          ],
          "data": "0x000000000000000000000000000000000000000000000000006b260ea5a4b250",
          "blockHash": "0x89fa2cd6e6e626dac217bb34f200c5d244b8b869701295e2582b954c4ac9451b",
          "blockNumber": "0x18629e4",
          "transactionHash": "0xe68901d2f0ce98b78328ed59d7abe8b395ba56df617cc4800fcbe23c5c102f6e",
          "transactionIndex": "0x8f",
          "logIndex": "0x172",
          "removed": false
        },
        {
          "address": "0xcc6e512f294de91f80943f378813fde69f9e3e04",
          "topics": [
            "0xddf252ad1be2c89b69c2b068fc378daa952ba7f163c4a11628f55a4df523b3ef",
            "0x000000000000000000000000498581ff718922c3f8e6a244956af099b2652b2b",
            "0x00000000000000000000000014b483fea5ce2e34c4e6a9581084babdefea7651"
          ],
          "data": "0x0000000000000000000000000000000000000000000000000de0b6b3a7640000",
          "blockHash": "0x89fa2cd6e6e626dac217bb34f200c5d244b8b869701295e2582b954c4ac9451b",
          "blockNumber": "0x18629e4",
          "transactionHash": "0xe68901d2f0ce98b78328ed59d7abe8b395ba56df617cc4800fcbe23c5c102f6e",
          "transactionIndex": "0x8f",
          "logIndex": "0x173",
          "removed": false
        },
        {
          "address": "0xeb4ad181e73b5cd10387a824d6ec9602c151ab71",
          "topics": [
            "0xddf252ad1be2c89b69c2b068fc378daa952ba7f163c4a11628f55a4df523b3ef",
            "0x00000000000000000000000014b483fea5ce2e34c4e6a9581084babdefea7651",
            "0x000000000000000000000000498581ff718922c3f8e6a244956af099b2652b2b"
          ],
          "data": "0x0000000000000000000000000000000000000000000000000e5ec54c371694d9",
          "blockHash": "0x89fa2cd6e6e626dac217bb34f200c5d244b8b869701295e2582b954c4ac9451b",
          "blockNumber": "0x18629e4",
          "transactionHash": "0xe68901d2f0ce98b78328ed59d7abe8b395ba56df617cc4800fcbe23c5c102f6e",
          "transactionIndex": "0x8f",
          "logIndex": "0x174",
          "removed": false
        }
      ],
      "logsBloom": "0x00000000000000000000000000000000000000000000200000000000000002000020080000000000800000000000000000080000040100000000000000000000000000000000000000000008000000000000000000800020000000000000000000000000000000000000000000800000000000200000000000000010000000000000000000004000000000000000000000000000000000020000000400000020004000010000400000000000000000000000000000000000000000800000000000000002000084000000000001000000000800000000000000000000000000000001000000000000004000000000000000000400000000000000000000000000",
      "type": "0x2",
      "transactionHash": "0xe68901d2f0ce98b78328ed59d7abe8b395ba56df617cc4800fcbe23c5c102f6e",
      "transactionIndex": "0x8f",
      "blockHash": "0x89fa2cd6e6e626dac217bb34f200c5d244b8b869701295e2582b954c4ac9451b",
      "blockNumber": "0x18629e4",
      "gasUsed": "0x25b1f",
      "effectiveGasPrice": "0x15671ad",
      "from": "0x14b483fea5ce2e34c4e6a9581084babdefea7651",
      "to": "0xc6351303897a2c274ca2c06d06e987b88f7dbcbe",
      "contractAddress": null,
      "l1BaseFeeScalar": "0x8dd",
      "l1BlobBaseFee": "0xf192",
      "l1BlobBaseFeeScalar": "0x101c12",
      "l1Fee": "0x82067cb32",
      "l1GasPrice": "0x1760e5cff",
      "l1GasUsed": "0x992"
    },
    {
      "status": "0x1",
      "cumulativeGasUsed": "0x1e7f65f",
      "logs": [
        {
          "address": "0x498581ff718922c3f8e6a244956af099b2652b2b",
          "topics": [
            "0x40e9cecb9f5f1f1c5b9c97dec2917b7ee92e57ba5563708daca94dd84ad7112f",
            "0x74b1eb0eb9068ed54b6b9d55673f7de8fac3299ce7e3df916e0172676d225a1a",
            "0x000000000000000000000000c6351303897a2c274ca2c06d06e987b88f7dbcbe"
          ],
          "data": "0x0000000000000000000000000000000000000000000000000dcbd2a41a248790fffffffffffffffffffffffffffffffffffffffffffffffff21f494c589c000000000000000000000000000000000000000000010026a5051193cb8500e744850000000000000000000000000000000000000000000000b76ef6d7d1e8594b01000000000000000000000000000000000000000000000000000000000000000b0000000000000000000000000000000000000000000000000000000000001388",
          "blockHash": "0x89fa2cd6e6e626dac217bb34f200c5d244b8b869701295e2582b954c4ac9451b",
          "blockNumber": "0x18629e4",
          "transactionHash": "0x03e66e8cc0152f8cd2198616a1212793b89fc5963b3321004ee23e553dcd1a8e",
          "transactionIndex": "0x90",
          "logIndex": "0x175",
          "removed": false
        },
        {
          "address": "0xcc6e512f294de91f80943f378813fde69f9e3e04",
          "topics": [
            "0xddf252ad1be2c89b69c2b068fc378daa952ba7f163c4a11628f55a4df523b3ef",
            "0x000000000000000000000000498581ff718922c3f8e6a244956af099b2652b2b",
            "0x000000000000000000000000352487cf769016805b332607dbfda6ca46404044"
          ],
          "data": "0x0000000000000000000000000000000000000000000000000069f46633fbf9d3",
          "blockHash": "0x89fa2cd6e6e626dac217bb34f200c5d244b8b869701295e2582b954c4ac9451b",
          "blockNumber": "0x18629e4",
          "transactionHash": "0x03e66e8cc0152f8cd2198616a1212793b89fc5963b3321004ee23e553dcd1a8e",
          "transactionIndex": "0x90",
          "logIndex": "0x176",
          "removed": false
        },
        {
          "address": "0xcc6e512f294de91f80943f378813fde69f9e3e04",
          "topics": [
            "0xddf252ad1be2c89b69c2b068fc378daa952ba7f163c4a11628f55a4df523b3ef",
            "0x000000000000000000000000498581ff718922c3f8e6a244956af099b2652b2b",
            "0x00000000000000000000000014b483fea5ce2e34c4e6a9581084babdefea7651"
          ],
          "data": "0x0000000000000000000000000000000000000000000000000d61de3de6288dbd",
          "blockHash": "0x89fa2cd6e6e626dac217bb34f200c5d244b8b869701295e2582b954c4ac9451b",
          "blockNumber": "0x18629e4",
          "transactionHash": "0x03e66e8cc0152f8cd2198616a1212793b89fc5963b3321004ee23e553dcd1a8e",
          "transactionIndex": "0x90",
          "logIndex": "0x177",
          "removed": false
        },
        {
          "address": "0xeb4ad181e73b5cd10387a824d6ec9602c151ab71",
          "topics": [
            "0xddf252ad1be2c89b69c2b068fc378daa952ba7f163c4a11628f55a4df523b3ef",
            "0x00000000000000000000000014b483fea5ce2e34c4e6a9581084babdefea7651",
            "0x000000000000000000000000498581ff718922c3f8e6a244956af099b2652b2b"
          ],
          "data": "0x0000000000000000000000000000000000000000000000000de0b6b3a7640000",
          "blockHash": "0x89fa2cd6e6e626dac217bb34f200c5d244b8b869701295e2582b954c4ac9451b",
          "blockNumber": "0x18629e4",
          "transactionHash": "0x03e66e8cc0152f8cd2198616a1212793b89fc5963b3321004ee23e553dcd1a8e",
          "transactionIndex": "0x90",
          "logIndex": "0x178",
          "removed": false
        }
      ],
      "logsBloom": "0x00000000000000000000000000000000000000000000200000000000000002000020080000000000800000000000000000080000040100000000000000000000000000000000000000000008000000000000000000800020000000000000000000000000000000000000000000800000000000200000000000000010000000000000000000004000000000000000000000000000000000020000000400000020004000010000400000000000000000000000000000000000000000800000000000000002000084000000000001000000000800000000000000000000000000000001000000000000004000000000000000000400000000000000000000000000",
      "type": "0x2",
      "transactionHash": "0x03e66e8cc0152f8cd2198616a1212793b89fc5963b3321004ee23e553dcd1a8e",
      "transactionIndex": "0x90",
      "blockHash": "0x89fa2cd6e6e626dac217bb34f200c5d244b8b869701295e2582b954c4ac9451b",
      "blockNumber": "0x18629e4",
      "gasUsed": "0x2177a",
      "effectiveGasPrice": "0x15671ad",
      "from": "0x14b483fea5ce2e34c4e6a9581084babdefea7651",
      "to": "0xc6351303897a2c274ca2c06d06e987b88f7dbcbe",
      "contractAddress": null,
      "l1BaseFeeScalar": "0x8dd",
      "l1BlobBaseFee": "0xf192",
      "l1BlobBaseFeeScalar": "0x101c12",
      "l1Fee": "0x886ab757b",
      "l1GasPrice": "0x1760e5cff",
      "l1GasUsed": "0xa0a"
    },
    {
      "status": "0x1",
      "cumulativeGasUsed": "0x200fd32",
      "logs": [
        {
          "address": "0x498581ff718922c3f8e6a244956af099b2652b2b",
          "topics": [
            "0x40e9cecb9f5f1f1c5b9c97dec2917b7ee92e57ba5563708daca94dd84ad7112f",
            "0x74b1eb0eb9068ed54b6b9d55673f7de8fac3299ce7e3df916e0172676d225a1a",
            "0x000000000000000000000000c6351303897a2c274ca2c06d06e987b88f7dbcbe"
          ],
          "data": "0xfffffffffffffffffffffffffffffffffffffffffffffffff21096470f2786810000000000000000000000000000000000000000000000000de0b6b3a76400000000000000000000000000000000000000000001001346d8ea9a722e187a998f0000000000000000000000000000000000000000000000b76ef6d7d1e8594b0100000000000000000000000000000000000000000000000000000000000000050000000000000000000000000000000000000000000000000000000000001388",
          "blockHash": "0x89fa2cd6e6e626dac217bb34f200c5d244b8b869701295e2582b954c4ac9451b",
          "blockNumber": "0x18629e4",
          "transactionHash": "0x60ad0c1a0a0d4fa7fe59e58a67214b0eee36172fbbc7e68742be12a2582c5060",
          "transactionIndex": "0x96",
          "logIndex": "0x181",
          "removed": false
        },
        {
          "address": "0xcc6e512f294de91f80943f378813fde69f9e3e04",
          "topics": [
            "0xddf252ad1be2c89b69c2b068fc378daa952ba7f163c4a11628f55a4df523b3ef",
            "0x000000000000000000000000498581ff718922c3f8e6a244956af099b2652b2b",
            "0x000000000000000000000000352487cf769016805b332607dbfda6ca46404044"
          ],
          "data": "0x000000000000000000000000000000000000000000000000006b05bb4ee7c634",
          "blockHash": "0x89fa2cd6e6e626dac217bb34f200c5d244b8b869701295e2582b954c4ac9451b",
          "blockNumber": "0x18629e4",
          "transactionHash": "0x60ad0c1a0a0d4fa7fe59e58a67214b0eee36172fbbc7e68742be12a2582c5060",
          "transactionIndex": "0x96",
          "logIndex": "0x182",
          "removed": false
        },
        {
          "address": "0xcc6e512f294de91f80943f378813fde69f9e3e04",
          "topics": [
            "0xddf252ad1be2c89b69c2b068fc378daa952ba7f163c4a11628f55a4df523b3ef",
            "0x00000000000000000000000014b483fea5ce2e34c4e6a9581084babdefea7651",
            "0x000000000000000000000000498581ff718922c3f8e6a244956af099b2652b2b"
          ],
          "data": "0x0000000000000000000000000000000000000000000000000e5a6f743fc03fb3",
          "blockHash": "0x89fa2cd6e6e626dac217bb34f200c5d244b8b869701295e2582b954c4ac9451b",
          "blockNumber": "0x18629e4",
          "transactionHash": "0x60ad0c1a0a0d4fa7fe59e58a67214b0eee36172fbbc7e68742be12a2582c5060",
          "transactionIndex": "0x96",
          "logIndex": "0x183",
          "removed": false
        },
        {
          "address": "0xeb4ad181e73b5cd10387a824d6ec9602c151ab71",
          "topics": [
            "0xddf252ad1be2c89b69c2b068fc378daa952ba7f163c4a11628f55a4df523b3ef",
            "0x000000000000000000000000498581ff718922c3f8e6a244956af099b2652b2b",
            "0x00000000000000000000000014b483fea5ce2e34c4e6a9581084babdefea7651"
          ],
          "data": "0x0000000000000000000000000000000000000000000000000de0b6b3a7640000",
          "blockHash": "0x89fa2cd6e6e626dac217bb34f200c5d244b8b869701295e2582b954c4ac9451b",
          "blockNumber": "0x18629e4",
          "transactionHash": "0x60ad0c1a0a0d4fa7fe59e58a67214b0eee36172fbbc7e68742be12a2582c5060",
          "transactionIndex": "0x96",
          "logIndex": "0x184",
          "removed": false
        }
      ],
      "logsBloom": "0x00000000000000000000000000000000000000000000200000000000000002000020080000000000800000000000000000080000040100000000000000000000000000000000000000000008000000000000000000800020000000000000000000000000000000000000000000800000000000200000000000000010000000000000000000004000000000000000000000000000000000020000000400000020004000010000400000000000000000000000000000000000000000800000000000000002000084000000000001000000000800000000000000000000000000000001000000000000004000000000000000000400000000000000000000000000",
      "type": "0x2",
      "transactionHash": "0x60ad0c1a0a0d4fa7fe59e58a67214b0eee36172fbbc7e68742be12a2582c5060",
      "transactionIndex": "0x96",
      "blockHash": "0x89fa2cd6e6e626dac217bb34f200c5d244b8b869701295e2582b954c4ac9451b",
      "blockNumber": "0x18629e4",
      "gasUsed": "0x213d2",
      "effectiveGasPrice": "0x15671ad",
      "from": "0x14b483fea5ce2e34c4e6a9581084babdefea7651",
      "to": "0xc6351303897a2c274ca2c06d06e987b88f7dbcbe",
      "contractAddress": null,
      "l1BaseFeeScalar": "0x8dd",
      "l1BlobBaseFee": "0xf192",
      "l1BlobBaseFeeScalar": "0x101c12",
      "l1Fee": "0x87b4e9b73",
      "l1GasPrice": "0x1760e5cff",
      "l1GasUsed": "0x9fd"
    },
    {
      "status": "0x1",
      "cumulativeGasUsed": "0x202d206",
      "logs": [
        {
          "address": "0x498581ff718922c3f8e6a244956af099b2652b2b",
          "topics": [
            "0x40e9cecb9f5f1f1c5b9c97dec2917b7ee92e57ba5563708daca94dd84ad7112f",
            "0x74b1eb0eb9068ed54b6b9d55673f7de8fac3299ce7e3df916e0172676d225a1a",
            "0x000000000000000000000000c6351303897a2c274ca2c06d06e987b88f7dbcbe"
          ],
          "data": "0xfffffffffffffffffffffffffffffffffffffffffffffffff21f494c589c00000000000000000000000000000000000000000000000000000dcffd68fa4d6101000000000000000000000000000000000000000100000003bdc05fb05b28a5af0000000000000000000000000000000000000000000000b76ef6d7d1e8594b0100000000000000000000000000000000000000000000000000000000000000000000000000000000000000000000000000000000000000000000000000001388",
          "blockHash": "0x89fa2cd6e6e626dac217bb34f200c5d244b8b869701295e2582b954c4ac9451b",
          "blockNumber": "0x18629e4",
          "transactionHash": "0x2b9bf1da57158861f9a7762373855f4be1b1bcee489803461e8241369cac7a52",
          "transactionIndex": "0x97",
          "logIndex": "0x185",
          "removed": false
        },
        {
          "address": "0xeb4ad181e73b5cd10387a824d6ec9602c151ab71",
          "topics": [
            "0xddf252ad1be2c89b69c2b068fc378daa952ba7f163c4a11628f55a4df523b3ef",
            "0x000000000000000000000000498581ff718922c3f8e6a244956af099b2652b2b",
            "0x000000000000000000000000352487cf769016805b332607dbfda6ca46404044"
          ],
          "data": "0x000000000000000000000000000000000000000000000000006a1466fd44e1a1",
          "blockHash": "0x89fa2cd6e6e626dac217bb34f200c5d244b8b869701295e2582b954c4ac9451b",
          "blockNumber": "0x18629e4",
          "transactionHash": "0x2b9bf1da57158861f9a7762373855f4be1b1bcee489803461e8241369cac7a52",
          "transactionIndex": "0x97",
          "logIndex": "0x186",
          "removed": false
        },
        {
          "address": "0xcc6e512f294de91f80943f378813fde69f9e3e04",
          "topics": [
            "0xddf252ad1be2c89b69c2b068fc378daa952ba7f163c4a11628f55a4df523b3ef",
            "0x00000000000000000000000014b483fea5ce2e34c4e6a9581084babdefea7651",
            "0x000000000000000000000000498581ff718922c3f8e6a244956af099b2652b2b"
          ],
          "data": "0x0000000000000000000000000000000000000000000000000de0b6b3a7640000",
          "blockHash": "0x89fa2cd6e6e626dac217bb34f200c5d244b8b869701295e2582b954c4ac9451b",
          "blockNumber": "0x18629e4",
          "transactionHash": "0x2b9bf1da57158861f9a7762373855f4be1b1bcee489803461e8241369cac7a52",
          "transactionIndex": "0x97",
          "logIndex": "0x187",
          "removed": false
        },
        {
          "address": "0xeb4ad181e73b5cd10387a824d6ec9602c151ab71",
          "topics": [
            "0xddf252ad1be2c89b69c2b068fc378daa952ba7f163c4a11628f55a4df523b3ef",
            "0x000000000000000000000000498581ff718922c3f8e6a244956af099b2652b2b",
            "0x00000000000000000000000014b483fea5ce2e34c4e6a9581084babdefea7651"
          ],
          "data": "0x0000000000000000000000000000000000000000000000000d65e901fd087f60",
          "blockHash": "0x89fa2cd6e6e626dac217bb34f200c5d244b8b869701295e2582b954c4ac9451b",
          "blockNumber": "0x18629e4",
          "transactionHash": "0x2b9bf1da57158861f9a7762373855f4be1b1bcee489803461e8241369cac7a52",
          "transactionIndex": "0x97",
          "logIndex": "0x188",
          "removed": false
        }
      ],
      "logsBloom": "0x00000000000000000000000000000000000000000000200000000000000002000020080000000000800000000000000000080000040100000000000000000000000000000000000000000008000000000000000000800020000000000000000000000000000000000000000000800000000000200000000000000010000000000000000000004000000000000000000000000000000000020000000400000020004000010000400000000000000000000000000000000000000000800000000000000002000084000000000001000000000800000000000000000000000000000001000000000000004000000000000000000400000000000000000000000000",
      "type": "0x2",
      "transactionHash": "0x2b9bf1da57158861f9a7762373855f4be1b1bcee489803461e8241369cac7a52",
      "transactionIndex": "0x97",
      "blockHash": "0x89fa2cd6e6e626dac217bb34f200c5d244b8b869701295e2582b954c4ac9451b",
      "blockNumber": "0x18629e4",
      "gasUsed": "0x1d4d4",
      "effectiveGasPrice": "0x15671ad",
      "from": "0x14b483fea5ce2e34c4e6a9581084babdefea7651",
      "to": "0xc6351303897a2c274ca2c06d06e987b88f7dbcbe",
      "contractAddress": null,
      "l1BaseFeeScalar": "0x8dd",
      "l1BlobBaseFee": "0xf192",
      "l1BlobBaseFeeScalar": "0x101c12",
      "l1Fee": "0x8bf7bb7a4",
      "l1GasPrice": "0x1760e5cff",
      "l1GasUsed": "0xa4d"
    }
  ],
  "libraries": [],
  "pending": [],
  "returns": {},
  "timestamp": 1737928945,
  "chain": 8453,
  "commit": "ea70f73"
}